:020000040000FA
:10000000408001203102000039020000F1080000A8
:100010003D0200003F02000041020000000000001D
:10002000000000000000000000000000430200008B
:1000300045020000000000004702000049020000E5
:10004000290900004B020000611700004114000064
:10005000951400004B0200004D0800000510000040
:100060004B0200004B0200004B0200004B0200005C
:100070004B0200009D0900004B0200004B020000F3
:1000800071170000A10F00004B0200004B0200009E
:10009000A51400004B0200004B0200004B020000C0
:1000A0004B0200004B0200004B0200004B0200001C
:1000B0004B0200004B0200000000000000000000A6
:1000C0004B0200004B0200004B0200004B020000FC
:1000D0004B0200004B0200004B0200004B020000EC
:1000E0004B0200004B0200004B0200000000000029
:1000F000000000004B020000000000004B02000066
:1001000000000000000000000000000000000000EF
:1001100000000000000000000000000000000000DF
:1001200000000000000000000000000000000000CF
:1001300000000000000000000000000000000000BF
:1001400000000000000000000000000000000000AF
:10015000000000000000000000000000000000009F
:10016000000000000000000000000000000000008F
:10017000000000000000000000000000000000007F
:10018000000000000000000000000000000000006F
:10019000000000000000000000000000000000005F
:1001A000000000000000000000000000000000004F
:1001B000000000000000000000000000000000003F
:1001C000000000000000000000000000000000002F
:1001D000000000000000000000000000000000001F
:1001E000000000000000000000000000000000000F
:1001F00000000000000000000000000000000000FF
:10020000DFF80CD000F0E4FA00480047B1CB000062
:100210004080012000B583B002900091019244F229
:10022000010071466A4602F025F803B000BD0000E7
:100230000648804706480047FEE7FEE7FEE7FEE780
:10024000FEE7FEE7FEE7FEE7FEE7FEE7A914000093
:10025000010200002DE9F05F0546002092469B4612
:1002600088460646814640241BE0284641464746CC
:10027000224600F09DFA53465A46C01A914110D3C7
:1002800011461846224600F084FA2D1A67EB010841
:100290004F4622460120002100F07BFA17EB0009AF
:1002A0004E41201EA4F10104DFDC484631462A46B7
:1002B0004346BDE8F09F0000014610B509683C22A6
:1002C000B1FBF2F302FB1313B1FBF2F11D48036023
:1002D000B1FBF2F302FB1313B1FBF2F118224360FE
:1002E000B1FBF2F302FB1313B1FBF2F183600A1DC1
:1002F0000723B2FBF3F403FB142282618A0040F26D
:10030000B55102F66C32B2FBF1F344334361B2FBF8
:10031000F1F301FB13218908C1613B2903D3027D5D
:10032000920700D0491C0022074C13460261E25C90
:100330008A4203D8891A5B1C0361F8E7491CC16033
:1003400010BD0000144000202E02020070B50546CA
:1003500001B90721541A241DB4F5B67F09DD2868B8
:1003600000F036F9A04204DC2868401C2860012017
:1003700070BD002C05DA2868401E286000F028F9BE
:100380000444072094FBF0F0401C70BD2DE9F04FB1
:1003900089B01D468A468046002401AF4FF0070B06
:1003A0000192079057F8241011F8010B47F8241018
:1003B00048B125280DD0BAF1010F06D908F8010B74
:1003C000AAF1010A5CE0641E5AE0002009B0BDE811
:1003D000F08F11F8010B47F824100028F3D0022603
:1003E0004FF030095A284BD020DC4D2873D014DC54
:1003F000442871D008DC2528DDD041282AD04228A5
:100400002ED043283CD130E0462847D0472857D04B
:10041000482862D0492833D161E0523808282FD2C9
:10042000DFE800F0787AA6838A97A6A861381928B1
:1004300026D2DFE800F00D1318202E253513255C99
:10044000252560642566256D257375258B9BA00089
:100450006AA000E070A0A9690091B4E07DA000E06E
:1004600088482969F8E788A007E06969642091FB5A
:10047000F0F0133082E0E86880E0641C47F8240064
:10048000002C8FDA002088F800000799A8EB010003
:100490009CE7E8684FF02009009070E07EA0ECE750
:1004A000686900F26C700090D5E906126846FFF7A3
:1004B0004DFF0099642091FBF0F200FB12105DE00B
:1004C0006869042600F26C700090D5E9061268464F
:1004D000FFF73CFF53E010E048E0A8684EE0A86852
:1004E0000C21173090FBF1F201FB120001E0E869EA
:1004F0000326401C42E02869FBE768683EE069A0EB
:10050000BBE7A8680C2801DA67A0B6E767A0B4E7E4
:1005100067A0B2E769A0B0E728682FE069A0ACE760
:10052000A869012608BB072028E0D5E90610401A73
:10053000C01D90FBFBF021E0686900F26C70009038
:10054000D5E906126846FFF701FF17E00126A86902
:1005500014E0A9695846891D91FBF0F20BFB1211BA
:10056000EA69511AC91D91FBFBF007E056A084E728
:1005700058A082E70426686900F26C7000900021A0
:100580008DF8181006A80A2113E0009A92FBF1F3E7
:1005900001FB1322303200F8012D009A92FBF1F298
:1005A000009232B901E000F8019D321EA6F1010669
:1005B000F9DC321EA6F10106E7DC5EE710F8011B4C
:1005C0000029FBD100994A1E00920029F6DC54E76D
:1005D00081070CD1642190FBF1F201FB120151B9AA
:1005E0004FF4C87190FBF1F201FB120018B100202A
:1005F00000F26D1070470120FAE7000053756E009D
:100600004D6F6E0054756500576564005468750041
:10061000467269005361740053756E646179004DD0
:100620006F6E646179005475657364617900576514
:10063000646E65736461790054687572736461797E
:1006400000467269646179005361747572646179FE
:10065000000000004A616E00466562004D61720054
:10066000417072004D6179004A756E004A756C00E8
:1006700041756700536570004F6374004E6F7600DC
:10068000446563003C020200256120256220256547
:10069000202554202559000025592D256D2D256430
:1006A000000000000A000000414D0000504D000015
:1006B00025493A254D3A25532025700025483A25ED
:1006C0004D00000009000000256D2F25642F2579BD
:1006D0000000000025483A254D3A2553000000004F
:1006E00010B5431A934209D28318881803E010F812
:1006F000011D03F8011D521EF9D210BD40EA01038D
:100700009B0703D009E008C9121F08C0042AFAD2C7
:1007100003E011F8013B00F8013B521EF9D210BD75
:10072000D2B201E000F8012B491EFBD27047002233
:10073000F6E710B513460A4604461946FFF7F0FFE0
:10074000204610BD10B5002200E0521C835C8C5C7A
:10075000A34201D1002BF8D1D8B2E1B2401A10BDAA
:10076000034611F8012B00F8012B002AF9D1184695
:1007700070470246C9B200E0401C0378002BFBD151
:1007800002E003788B4203D0401E9042F9D2002051
:100790007047202A04DB203A00FA02F1002070475B
:1007A0009140C2F1200320FA03F3194390407047AF
:1007B000202A04DB203A21FA02F00021704721FAB6
:1007C00002F3D040C2F1200291400843194670471D
:1007D000064C074D06E0E06840F0010394E807008E
:1007E00098471034AC42F6D3FFF70EFDB009020073
:1007F000D009020070B58C1810F8015B15F00703E2
:1008000001D110F8013B2A1106D110F8012B03E0A9
:1008100010F8016B01F8016B5B1EF9D12B0705D4B1
:100820000023521E0DD401F8013BFAE710F8013BFA
:10083000CB1A921C03E013F8015B01F8015B521E16
:10084000F9D5A142D8D3002070BD00002DE9FC41AC
:100850000025DFF8948000954FF4807601242F4620
:10086000019530460EF056F838B1D8F8040320420E
:1008700003D030460EF044F82543361D64007F1C3B
:10088000B6B2082FEDD34FF4BE7420460EF042F8F6
:1008900048B120460EF034F845F000456A46022182
:1008A00000200DF0A3FF15F0FF0F16D00126002445
:1008B0002E420ED008EB8401D1F81005D1F81015A6
:1008C000C0F30520094AC1F3014152F8242002B1C6
:1008D00090477600641C082CEAD3002D02DA6846A3
:1008E0000EF00EFCBDE8FC8100600040A402002078
:1008F00010B505A1002000F071FCBDE8104007A272
:100900000B210848FFF786BC486172644661756C2C
:10091000745F48616E646C65720D0A006D61696E8A
:100920002E630000EFBEADDE70B54FF4807630462A
:100930000DF08AFE114CB50560B130460DF08BFE0E
:100940000120C5F80803607920B901206071216891
:10095000002088474FF4827630460DF075FE00285F
:100960000AD030460DF077FE0220C5F80803216852
:10097000BDE870400120084770BD00000000002065
:1009800010B547F2305000F0F2FE01F0ADFC002847
:1009900003D0BDE8104001F087BC10BD064882B00E
:1009A0000021016000680090044800680449C0B25A
:1009B000496802B00847000000D1004008D5004057
:1009C0001C000020BF2800D9BF200621094A01EAE7
:1009D000501100F03F0032F8113002EB410149881C
:1009E00001FB003080B24FF40071884200D9084604
:1009F000704700000EF6010030B50E4B002100BF1D
:100A000003EB410433F811206488821A2244012A3E
:100A100001D5002204E0521E92FBF4F23F2A03DCCF
:100A200002EB4110C0B230BD891C0629E8DBBF20B3
:100A300030BD00000EF601002DE9FF4F9946037806
:100A400099F8001083B01646044613F0060F36D00E
:100A5000092906D2002089F80000C01E07B0BDE8B1
:100A6000F08FA07C012824D0022824D0042824D090
:100A70000320FF2131702178C1F3800141EA400059
:100A80007070A089FFF7B8FFB070E078F070607800
:100A9000307260683071010A7171010CB171000E21
:100AA000F071092189F80010207820F002002070F0
:100AB00034E10020DDE70120DBE70220D9E7A07860
:100AC000D4F804B008B1002000E003200290081A16
:100AD000A17CC01E90FBF1F7002FBBDDE289A0894D
:100AE000824209D2218A814217D3DB0715D0821AAC
:100AF0009344C4F804B0E08120461BF01BFE8246FC
:100B0000218AE0890D1A7E2D00DB7E25A268A1894D
:100B1000BAEB020028D5002227E08D1A002D20DB39
:100B200005D100BF4FF0000089F80000F6E0BD429B
:100B300001DA284600E038467E2803DABD4202DBAF
:100B40003D4600E07E252B46F11C204604F010F8BF
:100B5000E0894FF000082844E08160682844606024
:100B60007DE04FF0FF3079E70246914201DA084616
:100B700002E0002800D50020B84202DDB84600257A
:100B800013E08046A7EB0800A84200DC054605EB11
:100B90000800B84209DA2078C0F30110022804D115
:100BA000781B814200DB014688462F215C48FFF715
:100BB000E0FD28B12F215A48FFF7DBFD401C00E083
:100BC00057484FF4E873024656A158A018F0D7F8DA
:100BD000A0682B46CDE900A0424657A0049918F022
:100BE000CEF85DB1E2892B46F11C204603F0C0FF30
:100BF000E0892844E081606828446060B8F1000F13
:100C000029D0A16801EB08005146504500DD084697
:100C1000A0602F214248FFF7ACFD28B12F214048AA
:100C2000FFF7A7FD401C00E03D4840F2DB13024601
:100C30003CA13EA018F0A3F842464DA0A16818F0D0
:100C40009EF8A17CF01C05FB010208F0FF03204682
:100C5000049902F0B1F9207820F010002070E089AA
:100C6000A18988422DD9471A218AC01BC91B21821C
:100C7000E081B9B2204603F08FF9A0602F21284807
:100C8000FFF777FD28B12F212548FFF772FD401CA3
:100C900000E023484FF4F373024622A123A018F08A
:100CA0006EF83A463AA0A16818F069F8238A3A46E5
:100CB0000021204616F060FA218A3A46204602F0CA
:100CC000BDFB15EB08003FF42DAFA17C4843C01CD1
:100CD00089F8000035701FFA8BF1701C0EF0FCF8DB
:100CE000029890B1307840F08000307099F8005050
:100CF000E81C89F80000A089FFF77EFE7055701986
:100D00004FEA1B41401C0EF0E7F8A0786178401CC8
:100D1000491CB0FBF1F201FB1200A07000209DE61F
:100D20009C080200494E464F000000002573202811
:100D300025733A2564292000676574446174612035
:100D400025642072656463202564207379736320B1
:100D5000256420726564635F746172676574202521
:100D60006420726564636E742025640A00000000CC
:100D70004745543A20524F53452D3E726564636E89
:100D80007420256420726564632025640A000000D5
:100D900044494C5554453A20524F53452D3E7265B7
:100DA00064636E742025642073686966742025640A
:100DB0000A00000010B50446008AE18988420CD878
:100DC0002078400605D520461BF0B4FCA168884277
:100DD00003DC207810F0060F01D0022010BD0120A6
:100DE00010BD00002DE9F0410E7804468846F0075A
:100DF00001D0042A03D06FF00500BDE8F081B007F0
:100E000003D5207840F002002070F00602D598F853
:100E10000200E070B00602D598F803006070300759
:100E20006ED598F80100FFF7CDFD0546C01D80285E
:100E300001DA102004E0E81DC11700EB5170C0106A
:100E4000218AA37CC0F5886004F11302204401FBD1
:100E500003221330824216D92F213148FFF789FC33
:100E600028B12F212E48FFF784FC401C00E02C48BD
:100E700040F24A2302462BA12CA017F080FF2EA09F
:100E800017F07DFF3CE0A089471B002F1CDDC81B2D
:100E900083B22382E0893A46C01BE08100212046CC
:100EA00016F06AF9218A3A46204602F0C7FAB9B22A
:100EB000204603F071F8A060204604F0D3FA211A0E
:100EC00001F25341FFF733FCA58120782F2140F038
:100ED000040020701248FFF74CFC28B12F21104865
:100EE000FFF747FC401C00E00D4840F26323024638
:100EF0001FA10EA017F043FFA1891FA017F03FFF0D
:100F000070070AD598F80100FFF75CFDA1898842B7
:100F100003D1207820F00400207000206DE700004D
:100F20009C0802005741524E000000002573202803
:100F300025733A256429200049676E6F72696E67D0
:100F400020574C20696E63726561736520746F2051
:100F500061766F6964206F76657277726974696E05
:100F6000672070656E64696E6720646174610A0051
:100F7000494E464F000000004E455720574C3A203E
:100F8000524F53452D3E776C2025640A0000000027
:100F90008089C01D802801D210207047C00870478A
:100FA0000F4830B4D0F8041149B10E494FF08074A5
:100FB000D1E90623121943F10003C1E906230021F8
:100FC000C0F84011C0F84411C0F84811C0F84C11E5
:100FD000C0F80011C0F8041130BC1BF00FBD0000B8
:100FE0000010014028000020410CC0034FF4FA72A9
:100FF000801810B541F1000152000023FFF72AF9D3
:1010000010BD00002DE9FE434FF4827840460DF0FC
:1010100071FD4C4F00254C4C012600B340460DF0AD
:1010200071FD94F82E0010B194F82F10D1B18DF805
:101030000050616801912189ADF80810E26832B171
:10104000218B618362602181E56010B102E025742B
:1010500000E03E6021686846884784F82F5094F885
:101060002E0060B34FF4807738460DF043FD30B367
:1010700038460DF047FD628B94F82D108A420AD94C
:10108000A2EB010080B260832289A2EB00006268BB
:1010900002EB400005E007D1E06828B184F82F603A
:1010A00065830DF01FFD04E08A4202D184F82F60B1
:1010B000658340460DF026FD2248001D06604FF472
:1010C000887738460DF016FD48B138460DF01AFD08
:1010D000257402208DF800002168684688474FF487
:1010E0008A7738460DF006FD28B138460DF00AFD26
:1010F0002574BDE8FE834FF000484FF48C79676992
:101100001DE000BFB7FA87F028FA00F109EB80056F
:101110008F4328460DF0EEFC88B128460DF0F2FC16
:10112000A5F58C75E8088DF8040045F38000401C97
:101130008DF800608DF80500216868468847002F0B
:10114000E0D1D6E70070004034030020F8B50B4B27
:101150000646144618780D4608B900F01BFB00201F
:10116000009001F03FF922462946304600F008F889
:101170000446002001F038F92046F8BD001D00208B
:1011800070B50E46144900EB400001EBC005144653
:10119000E86A183520B101280FD0022805D113E0E4
:1011A000284600F02BFBA04201D2002411E0224689
:1011B0003146284600F054FC0BE0284600F01EFBA8
:1011C000A042F4D20446F2E73146284600F01BFC68
:1011D0000446204670BD0000001D00200FB408B575
:1011E00004A900916A46039900F004F801B05DF883
:1011F00014FB00002DE9F04188B0064664480290D7
:101200004FF440600025CDE90305CDE90556904631
:101210000C4600BF14F8011B002973D0252908D003
:1012200002A800F0D1FB05980028F3DA08B0BDE869
:10123000F08100200122217823291ED02B2919D0EA
:101240002D2902D0302908D102E040F0010001E050
:1012500040F00200641C002AEDD100222178A1F1A7
:1012600030030A2B0CD202EB820201EB4202303A2D
:10127000641CF3E740F00400ECE740F00800E9E705
:101280000023CFB22E2F0BD114F8011FA1F130078C
:101290000A2F05D203EB830301EB4303303BF3E753
:1012A0006C290DD068290BD0702954D00BDC25296E
:1012B00016D0582931D063290CD0642913D114E0F9
:1012C00014F8011BECE7732934D075291BD0782959
:1012D00009D122E0D8F80000011DC8F800100178FB
:1012E00002A800F071FB641C9DE7D8F800100F1DE8
:1012F000C8F800700968CDE900200A2202A800F0B1
:1013000095FAF0E733E0D8F800100F1DC8F8007028
:101310000968CDE900200A2208E0D8F800100F1D66
:10132000C8F800700968CDE90020102202A800F07A
:10133000E1FAD8E7D8F80000011DC8F800100768E6
:1013400017F8011B0029CED002A800F03DFB05983C
:101350000028F5DAC7E7D8F80000011DC8F800102A
:1013600001680820CDE9000503461022DEE7059854
:1013700000287FF75BAF049820B10246044930464D
:10138000FFF7E4FEDDE90410084405904EE7000095
:10139000F4040020002205E0835C0BB100207047BC
:1013A000521CD2B28A42F7D30120704710B50A0905
:1013B00001F00F0430F812300121A1408B4320F8D6
:1013C000123010BD00EBD10001F0070302780121BB
:1013D00099408A43027070470A0901F00F0130F802
:1013E0001200C84000F00100704700EBD10001F08E
:1013F00007010078C84000F001007047D20701D013
:1014000000F008B8FFF7D2BFD20701D000F00EB845
:10141000FFF7D8BF10B50A0901F00F0430F81230F9
:101420000121A1400B4320F8123010BD00EBD10286
:1014300001F00703107801219940084310707047AC
:10144000F8B51248124E04464FF48C710DF064FB4F
:1014500000281AD00025C4F81851D4F818010090BB
:10146000F07F3446FF2806D0A17F11B10DF0D6F9E8
:1014700001E00DF028FA65772572D4E9002101B06A
:1014800004F10800BDE8F0401047F8BD003000400E
:101490001003002002494FF040201BF053BB000016
:1014A000640300201BF0FCB92DE9F0414FF080539C
:1014B0009B4DD3F830019B4ED3F83411421C07D01A
:1014C00084460F4601240022BCF1080F06D014E028
:1014D000327895F800C0C2F30317F3E72FB1012F5C
:1014E00003D0022F01D0032F07D14FF08047C7F858
:1014F0000C21C7F810218C4F3A60471C04D00746D6
:101500008C46082F06D08BE096F800C02F78CCF3DD
:10151000031CF6E7BCF1000F08D0BCF1010F05D0A9
:10152000BCF1020F02D0BCF1030F79D17F4F3F68AD
:10153000DFF8FCC1CCF800707C4F3F1D3F680CF118
:10154000040CCCF80070794F08373F680CF1040C9C
:10155000CCF80070754F0C373F680CF1040CCCF8D8
:101560000070724F10373F680CF1040CCCF800701B
:101570006E4F14373F680CF1040CCCF800706B4FC1
:1015800018373F68DFF8A8C10CF1200CCCF80070C8
:10159000664F1C373F680CF1040CCCF80070634FA9
:1015A00020373F680CF1040CCCF800705F4F2437F3
:1015B0003F680CF1040CCCF800705C4F28373F6892
:1015C0000CF1040CCCF80070584F2C373F680CF12C
:1015D000040CCCF80070554F30373F68DFF850C12D
:1015E0000CF1400CCCF80070504F34373F680CF1D0
:1015F000040CCCF800704D4F38373F680CF1040CE8
:10160000CCF80070494F3C373F680CF1040CCCF823
:101610000070464F40373F680CF1040CCCF8007066
:10162000082806D10F0004D1DFF80CC1414FCCF8D7
:101630000070082806D10F0004D1DFF800C1FB2795
:10164000CCF80070082808D10F0006D193F858C2D2
:101650003B4B1F686CF303071F60082804D10B0085
:1016600002D1384F83013B60431C03D13178287885
:10167000C1F3031108280DD129B1012903D0022992
:1016800001D0032906D130480168C90702D06FF0A4
:10169000010101602D48016841F470010160BFF350
:1016A0004F8FBFF36F8F4FF01021D1F80C02284BF2
:1016B000C507284811D01C600468002CFCD0D1F864
:1016C0000C4224F00104C1F80C4201680029FCD04E
:1016D0001A6001680029FCD01AE0D1F80052002DF0
:1016E00003DBD1F80452002D14DA1C600468002CCE
:1016F000FCD01224C1F800420568002DFCD0C1F8CE
:10170000044201680029FCD01A6001680029FCD05D
:1017100000F00EFA114910480860BDE8F0810000A1
:10172000E00F00F0E80F00F038050040040400105E
:1017300020C50040488103008C56004018F5004049
:10174000E40E0040409602400004004088ED00E0B6
:1017500004E5014000E401400090D0036002002055
:1017600001480068004700000800002070477047EB
:1017700038B5064C20680025002805D0044840688C
:10178000804725602068009038BD000000010140BE
:101790001000002010B5124C01202061606111A0E2
:1017A000A061A4F60C40E0614FF44060206200208C
:1017B000A06260620BA1C4E90B01A4F10C0161639A
:1017C0000A21A1632064E063606409A1E01DFEF7C3
:1017D000C7FF08A12046FEF7C3FF2020A07110BD5F
:1017E000001D00205465726D696E616C0000000080
:1017F0005254540053454747455200000269C1689E
:101800008A4203D88068401A104400E0501A401EF3
:101810007047002809DB00F01F02012191404009B8
:10182000800000F1E020C0F8801270472DE9FC5FD5
:101830000E008146DDE90C47C6F10000984693464C
:10184000824600D40846012503E000BF90FBFBF070
:101850006D1C5845FADAA84500D9454624B1002E3A
:1018600001DB780700D5641EB80702D5B8F1000F78
:101870000FD0F8070DD164B1A5420AD22021484605
:10188000641E00F0A1F8D9F80C000028F3DABDE8D6
:10189000FC9FD9F80C000028F9DB002E02DA56462E
:1018A0002D2102E0780707D52B21484600F08CF85F
:1018B000D9F80C000028EADB07F0030002280FD15A
:1018C000B8F1000F0CD15CB1A54209D230214846D5
:1018D000641E00F079F8D9F80C000028F3DAD6E796
:1018E000CDE9004743465A463146484600F002F8E3
:1018F000CDE700002DE9F84F8246DDE90A4B0126CD
:10190000984691460D460846374602E0B0FBF9F08E
:101910007F1C4845FAD2B84500D947465FEACB70EC
:1019200017D1B4B15FEA8B7002D5B8F1000F02D0C5
:10193000202000900BE03020FBE75046641E009909
:1019400000F042F8DAF80C00002838DB0CB1A742AE
:10195000F3D3DAF80C00002831DB00BFB8F1010F37
:1019600002D9A8F1010803E0B5FBF6F0484502D31F
:1019700006FB09F6F2E7DFF84C8000BFB5FBF6F096
:1019800000FB165518F80010504600F01DF8DAF864
:101990000C00002803DBB6FBF9F6002EEED15FEA5F
:1019A000CB700CD0002C0AD0A74208D22021504680
:1019B000641E00F009F8DAF80C000028F2DABDE83D
:1019C000F88F000036D9010010B50446D4E9013083
:1019D000421C934205D323681954A260E068401C5E
:1019E000E060D4E90102824209D121682069FFF751
:1019F000ADFBA168884203D04FF0FF30E06010BD1E
:101A00000020A06010BD2DE9F047C4681746894644
:101A100006464FF000083069A04201D9051B02E0DC
:101A2000B168201A0D1AB0686D1E001BA84200D8BC
:101A30000546BD4200D33D4670682A4620444946CB
:101A4000FEF74EFEB0687F1B2C44A844A944A04278
:101A500000D10024F460002FDDD14046BDE8F087BE
:101A60002DE9F041C6680446174688468068851B04
:101A70006068BD4206D93044FEF732FEF019E060DE
:101A8000BDE8F0812A463044FEF72AFE7E1B08EBB3
:101A9000050132466068FEF723FEE660F0E70028A5
:101AA00009DB00F01F02012191404009800000F194
:101AB000E020C0F880127047002809DB00F01F0208
:101AC000012191404009800000F1E020C0F80011A0
:101AD0007047002809DB00F01F02012191404009F6
:101AE000800000F1E020C0F8001270474907090E9D
:101AF000002804DB00F1E02080F80014704700F0BB
:101B00000F0000F1E02080F8141D7047BFF34F8FE5
:101B100005480168054A01F4E06111430160BFF323
:101B20004F8F00BFFDE700000CED00E00400FA0558
:101B3000BFF34F8F05480168054A01F4E061114386
:101B40000160BFF34F8F00BFFDE700000CED00E028
:101B50000400FA0510EE100AC0F3C7517F391729A7
:101B6000A8BF7047DFED140A002970EE200A0CDAD6
:101B7000F5EEC00AF1EE10FA1ADD0028C8BF4FF0EA
:101B80007E50B8BF4FF0004012E00C4A22FA01F23A
:101B9000104208BF7047F5EEC00AF1EE10FA07DDFB
:101BA000002804DD4FF4000323FA01F108449043B8
:101BB00000EE100A70470000CAF24971FFFF7F0073
:101BC00010EE100AC0F3C7517F391729A8BF70471C
:101BD000DFED140A002970EE200A0DDAF5EEC00AD6
:101BE000F1EE10FA1ADD0028A8BF002016DAB0F1D5
:101BF000004F18BF0C4811E00C4ACA40104208BF01
:101C00007047F5EEC00AF1EE10FA07DD002804DA9D
:101C10004FF4000323FA01F10844904300EE100A48
:101C200070470000CAF24971000080BFFFFF7F00CB
:101C300002E008C8121F08C1002AFAD17047704795
:101C4000002001E001C1121F002AFBD170470000F3
:101C500070B5044640780E4681081546C90726D05F
:101C600020F0040060700621204604F095F8F8B1D9
:101C7000A178E01C4A1C0223A2700B54A17806F044
:101C800001034A1CA2700B54A1782B0A4A1CA270B3
:101C90000D54A1784A1CA2700B54A1782B0C4A1C3D
:101CA000A2700B54A1782B0E4A1CA2700B5470BD6D
:101CB0002F210B48FEF75DFD28B12F210848FEF7C4
:101CC00058FD421C00E0064A40F2111305A107A08E
:101CD00017F055F8BDE8704007A017F050B80000A5
:101CE000300802004552524F520000002573202850
:101CF00025733A25642920006374782D3E74785F3B
:101D00007061796C6F6164206275666665722069C6
:101D1000732066756C6C0A0070B50446807C1646AC
:101D20000D46012B2AD008B1401EA0740621204682
:101D300004F032F830B3A178E01C4A1C0123A270F1
:101D40000B54A1782B0A4A1CA2700D54A1784A1C8E
:101D5000A2700B54A1782B0C4A1CA2700B54A178D2
:101D60002B0E4A1CA2700B54E37C06F0010161F3B8
:101D70001F13A1784A1CA2700B5470BD0028FCD020
:101D80000026D1E72F210A48FEF7F3FC28B12F21C6
:101D90000748FEF7EEFC421C00E0054AFA2305A1C5
:101DA00006A016F0ECFFBDE8704007A016F0E7BFF4
:101DB000300802004552524F52000000257320287F
:101DC00025733A25642920006374782D3E74785F6A
:101DD0007061796C6F6164206275666665722069F6
:101DE000732066756C6C0A0010B504464078C10714
:101DF00016D020F0010060700321204603F0CCFFD4
:101E000078B1A178E01C4A1C0023A2700B54A17881
:101E100001224B1CA3700A54A1784B1CA3700A54D6
:101E200010BD2F210A48FEF7A4FC28B12F21084835
:101E3000FEF79FFC421C00E0054AD92305A107A03C
:101E400016F09DFFBDE8104007A016F098BF0000F7
:101E5000300802004552524F5200000025732028DE
:101E600025733A25642920006374782D3E74785FC9
:101E70007061796C6F616420627566666572206955
:101E8000732066756C6C0A002DE9F0470446DDE9A5
:101E900008070A9E2075984691460D462046FFF792
:101EA000A3FF43464A4629462046FFF735FF2A4608
:101EB00000212046FFF7CCFE324639462046BDE8D9
:101EC000F04700F0C5B8000070B50D46044609792A
:101ED000C07C01F00F01884230D1401C00F00F009F
:101EE000E07428786978EA7800EB0120A978090481
:101EF00001EB02610844E1690844E0610020A0743C
:101F0000022084F8280017F0BFF920622F21194819
:101F1000FEF72FFC28B12F211648FEF72AFC401CA3
:101F200000E0144840F2F113024613A114A016F089
:101F300026FFD4E90710421814A017E02F210D48FE
:101F4000FEF717FC28B12F210A48FEF712FC401CAF
:101F500000E008484FF4FB7302461AA108A016F0EF
:101F60000EFF2879E17C00F00F0218A0BDE8704058
:101F700016F005BF30080200494E464F0000000031
:101F80002573202825733A2564292000414C4320DD
:101F900053796E632074696D6520636F7272656337
:101FA00074696F6E2025642073202D3E206E657746
:101FB000204750532054696D653A20256420730AE8
:101FC000000000005741524E00000000414C4320E9
:101FD00053796E6320746F6B656E206D69736D61EC
:101FE0007463683A202564202D2025640A000000CF
:101FF00070B50646002417F047F9054696F8280004
:1020000048B1012803D1304603F0B8FE18B1F06999
:10201000441900D10124204670BD80697047807C3E
:102020007047C069704710B5044617F02DF9024695
:10203000606A236A0146002B07D0D21A914204D36A
:10204000881A814201D24FF4616010BD006A704766
:1020500070B515460B4604468278C11C1846FEF73B
:102060003FFBA07828700020A0700F20207570BD65
:102070000021417081708174C174064AC0E9062153
:102080000F2201620275CA22427580F828100249A7
:102090004162704740FA0100809940002DE9F0410B
:1020A00005460024AC7016460F464470A2E0385D29
:1020B00088B101282FD0022849D003286DD02F21C4
:1020C0004F48FEF756FB002875D02F214C48FEF7ED
:1020D00050FB401C82E0641CB44204D8687840F095
:1020E0000100687015E02F214548FEF742FB28B13A
:1020F0002F214348FEF73DFB401C00E04048912360
:10210000024640A141A016F03AFE434943A016F012
:1021100036FEE4B26EE004F10608B04508D839197D
:102120002846491CFFF7D0FE687840F002001CE00A
:102130002F213348FEF71DFB28B12F213048FEF731
:1021400018FB401C00E02E489E2302461CE004F1D0
:102150000208B0450BD83819407800F00F018020F4
:102160008840A861687840F00400687032E02F2150
:102170002348FEF7FEFA28B12F212148FEF7F9FA8D
:10218000421C00E01E4AAD231EA120A016F0F7FD60
:10219000214922A016F0F3FD1CE004F10208B0452D
:1021A0000AD83819407810F00700A87412D068785F
:1021B00040F00800D9E710E02F211148FEF7D9FAC6
:1021C00028B12F210E48FEF7D4FA421C00E00C4A39
:1021D000C023D9E708F0FF040CE00948C6230246F3
:1021E00008A10AA016F0CBFD0B490DA01A3116F07C
:1021F000C6FD0026A6423FF65AAF6878BDE8F081DA
:10220000300802004552524F52000000257320282A
:1022100025733A2564292000E4F5010025730A009E
:10222000257320496C6C6567616C207374617465FB
:102230000A200000002180F82810016270473EB596
:102240000C46694617F022F808B101203EBDDDF8C2
:1022500001002060DDF80500606000203EBD10B583
:10226000921E92B2891C17F023F8002800D001209A
:1022700010BD00000EB534CACDE900420B4602463F
:10228000029507490020FEF7A9FF064E64254FF48A
:102290007A47741C3846A0476D1EFAD1FFF736FC0A
:1022A0009402020020D901000EB500210091CDE971
:1022B00001106A4644F20100FFF7DCFF0EBD00008A
:1022C000084B9B7823B12AB120B10068037C1BB175
:1022D000082070470720704700230374417442614F
:1022E00018467047E803002070B514F0E3FA104870
:1022F00000240B21047044700E4D817014206C601A
:102300002C706C70FFF7CBFB06211420FFF7EEFB5F
:102310001420FFF7D1FB0848046006211120FFF7C5
:10232000E5FB0548001F0068A860002070BD0000A4
:10233000E803002028000020081501402DE9F8439B
:10234000DFF8749099F802306BB360B31B4C4B1FED
:10235000A34202D30720BDE8F88343691BB3437C43
:10236000012B22D000270446002588461646284621
:1023700000F038F868461AF079FDC0B1012101700B
:102380000F4944600968C0E90218C0E904769DF865
:10239000000089F80100002000F026F81420FFF763
:1023A00098FB2846D7E70820D5E70F46DBE704254A
:1023B000002000F019F8F4E7E8030020FBFFFF001D
:1023C000041501400649897839B130B1416921B11C
:1023D0000021017402211AF0F1BA082070470000B0
:1023E000E803002000F002B800F008B872B6024816
:1023F0000168491C016070472400002003490868F7
:10240000401E086000D162B6704700002400002022
:102410000149086070470000FC01002030B5F24C13
:10242000C3B041A902A816F0A1FA98B1EFA100200B
:10243000FEF7D4FEEFA10020FEF7D0FE9DF80920A4
:10244000EEA10020FEF7CAFEF7A10020FEF7C6FEAF
:1024500043B030BD2068002874D09DF809000828DA
:1024600071D007DC082817D2DFE800F0294659862A
:10247000BDFDFCFB102867D008DC0A2865D00D28BC
:1024800076D00E2875D00F2806D1A3E3112871D07D
:10249000122870D0FF2811D0E5A10020FEF79EFE83
:1024A000E5A10020FEF79AFE9DF80920E4A1002096
:1024B000FEF794FEDCA10020FEF790FED7E0DCA141
:1024C0000020FEF78BFEDCA10020FEF787FEE7A1CF
:1024D0000020FEF783FED4A10020FEF77FFEBDF8AA
:1024E0000C20EFA10020FEF779FE2068016800298A
:1024F000E4D0BDF80C0031E1CDA10020FEF76EFE66
:10250000CDA10020FEF76AFEEAA10020FEF766FEDC
:10251000C5A10020FEF762FE206840686FE3C4A1F9
:102520000020FEF75BFEC4A10020FEF757FEEBA1E2
:102530000020FEF753FEBCA10020FEF74FFE2068EE
:1025400080685CE3D1E30BE15DE3B9A10020FEF715
:1025500045FEB9A10020FEF741FEEAA10020FEF7EA
:102560003DFEB1A10020FEF739FE2068C06846E3B9
:1025700009E119E378E397E3ADA10020FEF72EFE11
:10258000ADA10020FEF72AFEE9A10020FEF726FEFD
:10259000A5A10020FEF722FE9DF80C0020B1012825
:1025A00010D0022816D118E090A10020FEF716FEE8
:1025B00090A10020FEF712FEE7A10020FEF70EFE1C
:1025C00099A104E098A10020FEF708FEE9A10020EF
:1025D000FEF704FE20680169FDE093A10020FEF7EC
:1025E000FDFDEAA1F3E792A10020FEF7F7FD92A11D
:1025F0000020FEF7F3FDEEA10020FEF7EFFD8AA11B
:102600000020FEF7EBFD9DF80E20F4A10020FEF760
:10261000E5FD9DF80F20F5A10020FEF7DFFD9DF9F7
:102620000C20F6A10020403AFEF7D8FD9DF90D00E0
:10263000C11700EB91708210F4A10020FEF7CEFDCF
:1026400020684569002D12D0BDF8020104A9C0B26E
:10265000CDE900109DF80F309DF80E209DF90D106A
:1026600002E05BE022E003E09DF90C00A84735E3BF
:102670006FA10020FEF7B2FD6FA10020FEF7AEFDB6
:10268000E5A10020FEF7AAFD67A10020FEF7A6FD48
:102690009DF80C00012807D0EAA2ECA10020FEF76B
:1026A0009DFD2068816996E0EDA2F6E760A100201B
:1026B000FEF794FD60A10020FEF790FDEBA1002045
:1026C000FEF78CFD58A10020FEF788FD56A10020E2
:1026D000FEF784FDF0A10020FEF780FD9DF80C00C0
:1026E000082804D0092808D00A280ED110E04EA1ED
:1026F0000020FEF773FDEAA104E04BA10020FEF7E5
:102700006DFDECA10020FEF769FD2068C16962E063
:1027100045A10020FEF762FDEBA1F3E744A10020F4
:10272000FEF75CFD44A10020FEF758FDECA100205F
:10273000FEF754FD3CA10020FEF750FD9DF80C0073
:10274000012807D0F0A2F1A10020FEF747FD206884
:10275000016A40E0F0A2F6E79DF80C008847BDE270
:1027600033A10020FEF73AFD33A10020FEF736FD2D
:10277000EAA10020FEF732FD2BA10020FEF72EFD7E
:102780002068406A3BE22AA10020FEF727FD2AA12B
:102790000020FEF723FDECA10020FEF71FFD22A183
:1027A0000020FEF71BFD9DF80C0020B1012808D089
:1027B00002280ED112E01CA10020FEF70FFDECA1B3
:1027C00004E019A10020FEF709FDEDA10020FEF7AD
:1027D00005FD2068816A0029BED17FE212A1002098
:1027E000FEF7FCFCE9A1F1E7FC0100201B5B303B9C
:1027F00033316D004552524F523A2000736D74636D
:102800005F6D6F64656D5F6765745F6576656E7437
:1028100020213D20534D54435F4D4F44454D5F5261
:10282000435F4F4B0A0000001B5B306D000000004F
:102830001B5B303B33326D00494E464F3A2000005F
:10284000232323232323203D3D3D3D3D20554E4B57
:102850004E4F574E204556454E54202575203D3D40
:102860003D3D202323232323230A00002323232366
:102870002323203D3D3D3D3D2042415349435320CC
:102880004D4F44454D205245534554204556454EE5
:1028900054203D3D3D3D202323232323230A0000D4
:1028A000526573657420636F756E74203A20256CD1
:1028B00075200A00232323232323203D3D3D3D3D56
:1028C00020414C41524D204556454E54203D3D3D02
:1028D0003D202323232323230A0000002323232333
:1028E0002323203D3D3D3D3D204A4F494E45442058
:1028F0004556454E54203D3D3D3D20232323232373
:10290000230A0000232323232323203D3D3D3D3D77
:10291000204A4F494E4544204641494C20455645A2
:102920004E54203D3D3D3D202323232323230A00F5
:10293000232323232323203D3D3D3D3D2054582088
:10294000444F4E45204556454E54203D3D3D3D208B
:102950002323232323230A00545820446F6E652029
:102960007374617475733A206E6F742073656E743E
:102970000A000000545820446F6E6520737461741F
:1029800075733A2073656E740A0000005458204431
:102990006F6E65207374617475733A2073656E741D
:1029A00020616E6420636F6E6669726D65640A00F3
:1029B000232323232323203D3D3D3D3D20444F57EA
:1029C0004E4C494E4B204556454E54203D3D3D3DD5
:1029D000202323232323230A00000000527820779A
:1029E000696E646F773A2025640A0000527820707F
:1029F0006F72743A2025640A000000005278205259
:102A00005353493A2025640A0000000052782053AD
:102A10004E523A2025640A00232323232323203DFA
:102A20003D3D3D3D2055504C4F414420444F4E4587
:102A3000204556454E54203D3D3D3D202323232334
:102A400023230A0041424F525445440055706C6F95
:102A50006164207374617475733A2025730A0000F1
:102A60005355434345535346554C000023232323DA
:102A70002323203D3D3D3D3D2053455420434F4EB3
:102A800046204556454E54203D3D3D3D20232323C1
:102A90002323230A000000005461673A200000004D
:102AA000414452206D6F6465207570646174656483
:102AB0000A0000004A6F696E204555492075706410
:102AC000617465640A000000444D20696E7465728B
:102AD00076616C20757064617465640A00000000A2
:102AE000232323232323203D3D3D3D3D204D5554AD
:102AF00045204556454E54203D3D3D3D2023232352
:102B00002323230A000000004F4646004D757465DC
:102B10003A2025730A0000004F4E00002323232390
:102B20002323203D3D3D3D3D2053545245414D2002
:102B3000444F4E45204556454E54203D3D3D3D2099
:102B40002323232323230A00232323232323203D7A
:102B50003D3D3D3D2054494D45204556454E542070
:102B60003D3D3D3D202323232323230A0000000075
:102B700054696D65206E6F742076616C69640A001B
:102B800054696D652076616C69640A0054696D65ED
:102B90002076616C696420627574206E6F74207396
:102BA000796E630A00000000AFF27C310020FEF76E
:102BB00015FBAFF27C310020FEF710FB52A1002084
:102BC000FEF70CFBAFF2A0310020FEF707FB2068F8
:102BD000C06A14E0AFF2A8310020FEF7FFFAAFF2AE
:102BE000A8310020FEF7FAFA52A10020FEF7F6FA0B
:102BF000AFF2CC310020FEF7F1FA2068006B00281C
:102C00006CD080476AE0AFF2D8310020FEF7E6FAD8
:102C1000AFF2DC310020FEF7E1FA52A10020FEF70E
:102C2000DDFAAFF2FC310020FEF7D8FA9DF80C2057
:102C300057A10020FEF7D2FA9DF80D2059A10020DF
:102C4000FEF7CCFA9DF80E205AA10020FEF7C6FA36
:102C50002068436B002B41D09DF80E209DF80D108D
:102C60009DF80C00984739E0AFF23C410020FEF798
:102C7000B5FAAFF23C410020FEF7B0FA53A10020B4
:102C8000FEF7ACFAAFF260410020FEF7A7FA9DF81C
:102C90000C0038B159A25EA10020FEF79FFA20680F
:102CA000816B98E561A2F6E7AFF27C410020FEF768
:102CB00095FAAFF27C410020FEF790FA5EA1002069
:102CC000FEF78CFAAFF2A0410020FEF787FA2068E9
:102CD000C26B1AB19DF80C10049890479DF809003A
:102CE000FF287FF49EAB43B030BDAFF2005100200F
:102CF000FEF774FAAFF204510020FEF76FFA9DF868
:102D000009205AA1FFF7D3BB232323232323203DEC
:102D10003D3D3D3D20414452204348414E474544BE
:102D2000204556454E54203D3D3D3D202323232341
:102D300023230A00232323232323203D3D3D3D3D20
:102D4000204E4557204C494E4B2041445220455679
:102D5000454E54203D3D3D3D202323232323230A7C
:102D600000000000232323232323203D3D3D3D3D40
:102D7000204C494E4B20434845434B204556454E39
:102D800054203D3D3D3D202323232323230A0000DF
:102D90004C696E6B207374617475733A2025640AF4
:102DA000000000004D617267696E3A20256420645E
:102DB000420A00004E756D626572206F6620676181
:102DC0007465776179733A2025640A0023232323ED
:102DD0002323203D3D3D3D3D20414C4D414E41434F
:102DE00020555044415445204556454E54203D3DC4
:102DF0003D3D202323232323230A00005354415421
:102E000055535F5245515545535445440000000009
:102E1000416C6D616E6163207570646174652073CF
:102E200074617475733A2025730A0000434F4D5046
:102E30004C45544544000000232323232323203DF5
:102E40003D3D3D3D205553455220524144494F2080
:102E5000414343455353204556454E54203D3D3D47
:102E60003D202323232323230A0000006C6F72617B
:102E70005F6261736963735F6D6F64656D5F6576D3
:102E8000656E745F63616C6C6261636B206E6F74FE
:102E900020646566696E65642025750A000000007F
:102EA000F8B5044690F8910694F8B225011D9142B8
:102EB00003D9002084F8B205F8BD04F2C441415C96
:102EC000009104F2C341435C491E4D1E425C415DCA
:102ED0001FA015F054FF94F89106012641192046D1
:102EE00016F0D8FF05460146204618F021FB401C8D
:102EF00026D0C4F8C45615F023FF0146204617F02B
:102F0000FBF801461DA015F03AFF00BF94F89106AA
:102F1000001DC0B284F8910694F8B2158842CBD84F
:102F200094F8052304F206300221115494F8051395
:102F3000401C0E5494F80503801C84F80503F8BD6A
:102F4000002614A015F01BFF14A015F018FFDDE7F4
:102F5000436D6420626561636F6E5F667265715F69
:102F60007265715F706172736572203D20257820F3
:102F700025782025782025780A0000004D616342DD
:102F80006561636F6E4672657175656E6379202544
:102F9000640A00001B5B306D00000000494E564182
:102FA0004C494420424541434F4E204652455155DD
:102FB000454E43590A0000002DE9FF4F858981469F
:102FC000681E83B09A46284201D1012000E000200B
:102FD00000EB050B484602F045FA009009F113009A
:102FE000019099F8121011FB0AF10598FDF79FFB6B
:102FF00000264AE00498009980EA062440F2E9306D
:103000004443A9EB0101002701F25341641C0098DD
:10301000FDF78DFB35E000BF4FF480300CE000BFC2
:1030200004F00100C4F340116208484002EB8054F0
:10303000B4FBFBF10BFB1140A842F1D2C30800F036
:10304000070101228A400099C95C114219D111433C
:10305000009AD15499F81210019B059A00FB013394
:1030600006FB012200207F1C09E000BF12F800C00F
:1030700013F800808CEA080C02F800C0401C88425B
:10308000F4DBB7EB550FC7D3761C5645B2DB07B060
:10309000BDE8F08F2DE9F04FADF5077D4FF0000A48
:1030A0004FF4807140A8FDF742FB00278E4C3E464E
:1030B000B846B94682A901A815F058FC8BA015F0B6
:1030C0005EFE8CA015F05BFE9DF805108BA015F040
:1030D00056FE8DA015F053FE9DF8050010287DD2F8
:1030E000DFE800F00812283E51909090909C849C5C
:1030F0009C90909019F0F2F9504615F0A3FE012132
:10310000504616F0E9F87DE003F00EFB20B103F025
:10311000F1FA16F011FC75E003F036FD18B101204C
:1031200015F0B4FA6EE003F0F9FA15F0AFFA4FF0CB
:10313000010867E076A015F022FE77A015F01FFECB
:1031400077A015F01CFE70A015F019FE05210320D4
:1031500015F0E6FD15F09AFA002016F0A3FA51E0FA
:103160009DF8080060B1012802D002284AD138E059
:1031700003F0E0FA002845D0002E43D1022641E0BA
:1031800084F806903EE09DF80B008590BDF8FE00A7
:1031900003A9C7B23A4640A8FDF7A2FA3A4669A188
:1031A0006BA015F0ECFD00250DF5807B0BE02807EA
:1031B00003D115B16BA015F0E2FD1BF805106AA054
:1031C00015F0DDFD6D1CBD42F1D366A015F0D7FDF5
:1031D00067A0859915F0D3FD859800E01EE0E028F2
:1031E00002D003F0A7FA68B101260BE03FA015F06A
:1031F000C6FD40A015F0C3FD60A015F0C0FD42A0C3
:1032000015F0BDFD9DF8080200287FF453AF01259D
:10321000012E0FD0207A00284AD051E05BA015F093
:10322000AEFD5CA015F0ABFD9DF805105BA015F0A0
:10323000A6FDE4E70021084615F04EFB2A485C4A4B
:10324000C01D431E0090394640A803F045FA0646CB
:10325000014658A015F093FD072E19D2DFE806F0BD
:1032600018181F1F1F1F0400504615F085FE80AA66
:10327000694684A803F044FABDF8100215F006FA76
:1032800016F0C6FA9DF90012009816F0A3FB06E0AE
:10329000E5712946A57101224548FDF741FA03F081
:1032A00049FA18B93C21002015F016FB257207E0F9
:1032B0000220E07102462946A5713D48FDF730FA2B
:1032C000B8F1000F0BD084F8089003F021FA024601
:1032D000A0790090364BE179504615F019FF0DF5B5
:1032E000077DBDE8F08F0000B80100201B5B303B7C
:1032F00033336D005741524E203A20004576656EBB
:1033000074202575C2A00A001B5B306D0000000010
:103310001B5B303B33326D00494E464F203A200054
:103320004D6F64656D206973206A6F696E65642CEA
:103330002070726F6772616D20616E20616C6172C6
:103340006D0A0000444F574E4441544100000000B4
:103350002573202D2028256C7520627974657329CA
:103360003A0A00000A000000202530325800000010
:103370006F6E20706F72742025750A004A6F696E37
:10338000206661696C6564200A0000001B5B303BAD
:1033900033316D004552524F523A2000556E6B6EDC
:1033A0006F776E206576656E742025750A000000C3
:1033B0003C3A00207374617475735F63657274695D
:1033C0006620307825780A0005494FF0FF3208283A
:1033D00041F8202002D3084480F8582070470000AC
:1033E000A4020020F0B54FF0FF3512B100230826EB
:1033F00001E008230C260C4C05E000BF54F82370B4
:103400007F1C04D05B1CB342F8D32846F0BD2618BD
:103410005DB286F8305044F82310002AF5D1E11847
:1034200081F85800F1E70000A40200200249084496
:1034300090F9300070470000A402002030B4837C73
:103440000C46133004FB030030BC02FB03F1FDF714
:103450006EB9000070B5084C050009D01034216821
:10346000002907D008682060496828468847F6E7A1
:103470000834F4E770BD000090020020054A0121E5
:1034800020B1012805D19170FFF7E4BF51700020F1
:10349000FAE77047900200207CB50546007C0024C6
:1034A00038B9A96001210D2002F034FB022085F813
:1034B0002000284600F0FDF850B100200090019057
:1034C00001AA6946284600F093F8009800F046F8F3
:1034D000284600F0DDF890B1284600F0EAF820B167
:1034E000284600F0B0F808BB24E000210D2002F0CF
:1034F00011FB284600F059F90120E86002E0E86875
:10350000032806D2284600F09EF880280ED9802491
:1035100010E00928284604D200F095F84FF46154D1
:1035200002E000F090F80C4CA04203D8284600F0CE
:103530008AF80446686AFEF776FDA04203D8686AF6
:10354000FEF771FD04461E21002015F0EBFB204420
:10355000BDE87C4009F08DBE40FA010000B5154978
:1035600095B00844139013A8FCF7A6FE01462C2240
:103570006846FDF7B5F86B460FA21E210BA8FCF7B5
:1035800005FF2F211248FDF7F4F828B12F2110482C
:10359000FDF7EFF8401C00E00D4840F2BD13024675
:1035A0000CA10EA015F0EBFB0BA90FA015F0E7FB8B
:1035B00015B000BD6E3DD51225612025592D256D14
:1035C0002D25642025483A254D3A255320255A00BB
:1035D0008C070200494E464F00000000257320284A
:1035E00025733A256429200025730A004078704726
:1035F0002DE9F041044690F8200015460E464FF0A4
:103600000008012809D0207C88B1606AFEF7F0FC30
:103610003060C5F80080BDE8F08115F093FBA1682B
:10362000471A15F08BFBA16938440844F0E715F000
:1036300087FB04F11C02111F03F042F9A0693060FE
:10364000E0692860E7E7017C11B1406AFEF7E5BC5C
:103650004068704770B50025044605700A486561EA
:10366000C4E901050E46E56001F006FE60702574B0
:1036700084F82050A56166622146E561BDE870408E
:103680000022024803F06CBA40FA010099340000AD
:10369000014600200A7C12B1486A02F065BB91F82D
:1036A0002010012901D0022900D1012070470078A3
:1036B0007047017C11B1406A02F060BB03F09AB917
:1036C0002DE9F04F0446007C8DB04FF00109002831
:1036D00059D003F0E5F900F0FF0A00208DF80C0046
:1036E00015F030FB05460321012015F019FB0544B8
:1036F0004FF0000846462046FFF7CAFF68B1204653
:10370000FFF7C6FF58B115F01DFB0746606AFEF7CC
:103710009DFC2349381A884201D94FF0010801F075
:10372000ABFD61780DF11C0B884203D117208DF899
:103730001C00012615F002FB4719606AFEF771FCB8
:10374000391803AB0BEB0600CDF800A0CDE901035F
:1037500000234246606AFEF797FB9DF80C00304458
:1037600010F0FF038DF80C3016D04FF47A714D43F2
:1037700060780221CDE9001507AA012103F0B0F914
:10378000012804D008E00D2003F0D8F9F8E7E0683C
:103790004FF00009401CE0600DB04846BDE8F08FD6
:1037A000C04C20000021C1607047017C11B1406A0B
:1037B000FEF740BD002180F82010816070470000B6
:1037C0002DE9F05F26484168F1B3DFF898B00E6844
:1037D0008146DBF8004087688078E11B21F07F4557
:1037E000ED1CA8B9DFF884801F48C8F84403C8F866
:1037F00004031120FEF753F91120FEF75DF94FF095
:10380000010AC8F800A02F200BF0D4F989F802A013
:10381000B54200D23546134BE8193C3320F07F40C7
:103820001860DBF800105A46091B21F07F41001B8D
:1038300020F07F40C91C81420FD9106818602F20EA
:103840000BF0B8F9112000E003E0BDE8F05FFEF7EF
:1038500040B9BDE8F05F13F02DB8BDE8F09F00005F
:103860002800002004150140020001000010014062
:1038700000207047F0B504462DED028B81B0002684
:10388000DDF82CC0DDE90857DDED0A8A7D20BCF1AA
:10389000000F14D000EE103AF2EE000A0126B8EE46
:1038A000400A80EE808A9FED550AFEF753F9F3EE49
:1038B0000E0AB4EEE00AF1EE10FA43DC40E0072A0B
:1038C00015D0092A04D00B2A06D00C2A0FD10CE0FF
:1038D000FA20072906D00AE04FF4FA70072901D030
:1038E000082904D101266D1C01E04FF448707D4386
:1038F00001238B4000EE103A4FF47A72B5FBF2F2DE
:10390000F8EEC00A00EE100A55004543B8EEC00AB2
:10391000CD40AD1D80EE808A00EE105AB8EE400A10
:10392000FEF718F9F1EE080AB4EEE00AF1EE10FA2B
:1039300006DD00EE105AB8EE400AFEF70BF901E082
:10394000B0EE600ABCEEC00A10EE100AA4F85006F1
:1039500080B2C10702D0401CA4F8500640F6B8302F
:10396000C4F84806B4F85006F1EE000A410800EE2B
:10397000101AB8EE400A30EEC00AF8EEE80A50EE2F
:10398000080AB6EE000AF5EEC00AF1EE10FA02DB04
:1039900070EE800A01E070EEC00AFDEEE00A10EE63
:1039A000901AC4F8841616B1001DA4F8500683B20C
:1039B00000EE903AB8EE601AF0EE400A41EE080AC6
:1039C000FDEEE00A10EE900A02280ADD00EE903AC1
:1039D000F8EE600A00EE880ABDEEC00A10EE102A6A
:1039E00000E00222C4F84C26CDED008A044815F010
:1039F000C6F901B0BDEC028BF0BD000000005842DA
:103A0000B804020002681368526831B19A4202D3C6
:103A10008068801A07E0981A70479A4201D3D01A3A
:103A200070478068C01A401C704701461A208129DF
:103A300038D016DC052929D006DC052948D2DFE874
:103A400001F01B1D1F212300082925D004DC0629B5
:103A50001ED007293CD11DE07F291FD0802937D1F6
:103A60001EE082390B2933D2DFE801F01E20222428
:103A700026282A2C2E30070003207047022070478A
:103A800005207047042070470D2070470E207047B6
:103A90000F2070470C2070470B2070470A2070479A
:103AA0000620704712207047162070470720704785
:103AB0001320704717207047082070471420704764
:103AC000182070470920704715207047192070474B
:103AD0001B20704730B54FF0FF320B4D0DE000BF9B
:103AE00010F8013B5A40002302F0010464422C40CC
:103AF0005B1C84EA5202082BF6DB0B1EA1F10101CC
:103B0000EEDCD04330BD00002083B8ED2DE9F05F3E
:103B10009A460446DDE90A938089DDF830B00F4605
:103B200018B3E088A68800F1010CBCFBF6F8216808
:103B300006FB18CC0D5C11F80CC0801C0CEB0525A5
:103B4000B0FBF6FC06FB1C00ADB20E5C8FB15FEA69
:103B500009000ED05AB153B115801E70554501D8D9
:103B60005E4506D90320BDE8F09F0220FBE7012057
:103B7000F9E7E088A188C01C80B2B0FBF1F201FB3C
:103B80001200E080B9F1000F17D0B6B182198A4255
:103B90000DD90A1A216801444846FCF7A1FDA18805
:103BA000E0880A1AB21A4944081A216803E0216819
:103BB000324601444846FCF793FDE088A188304432
:103BC00080B2B0FBF1F201FB1200E080BFB1B5B1F1
:103BD00042198A420DD90A1A216801443846FCF775
:103BE0007FFDA188E0880A1AAA1A3944081A2168B8
:103BF00003E021682A4601443846FCF771FDE0885D
:103C0000A188284480B2B0FBF1F201FB1200E080F1
:103C10006089ED1C304428446081A089401EA08149
:103C20006069401C606100209DE72DE9FE4F15464C
:103C30000C9E04467019C01C87B2A08899468A461B
:103C4000B84212D20320BDE8FE8F0023CDF80080D9
:103C5000CDF804801A4619462046CDF80880FFF7B3
:103C600055FFA069401CA06101E04FF00008608989
:103C7000B842EAD322892168280A88542089A18879
:103C8000401C80B2B0FBF1F201FB120020812168E0
:103C90000D542089A288401C80B2B0FBF2F102FBD7
:103CA0001100208121680E542089A188401C80B217
:103CB000B0FBF1F201FB12002081FEB182198A42B1
:103CC0000DD90A1A216808444946FCF709FDA18864
:103CD00020890A1AB21A4944091A206803E02168A7
:103CE000324608444946FCF7FBFC2089A188304451
:103CF00080B2B0FBF1F201FB120020810DB380B263
:103D0000421989B28A420DD90A1A216808445146DB
:103D1000FCF7E6FCA0882189421AAA1A5044411AED
:103D2000206803E021682A4608445146FCF7D8FC85
:103D30002089A188284480B2B0FBF1F201FB120077
:103D400020816089C01B6081A089401CA0812069FE
:103D5000401C2061002076E70249C87A00B1401E6D
:103D6000C87270479000002003490878002801D0ED
:103D7000401E087070470000A80000201FB50024F6
:103D80000094019402940394042808D0052806D0D6
:103D9000062804D0072804D00A2004B010BD01244E
:103DA00000E002248DF800400C788DF801404C783A
:103DB0008DF8024089788DF8031011788DF8041081
:103DC00051788DF8051091788DF80610190A8DF844
:103DD000081002468DF807300121684618F0B0FA45
:103DE0000028DAD00E20D8E738B5044690F89106BE
:103DF00094F8B215401C884203D9002084F8B2051B
:103E000038BD6A462146D4F8440611F029FF1BA0AC
:103E100014F0B5FF1BA014F0B2FF94F89106401CFB
:103E2000C0B284F8910694F8B2158842E8D894F8A4
:103E3000052304F206300621115414F063FF94F8B0
:103E4000052304F2073150549DF800107A2201EB4B
:103E5000C10101EB4101D4F8440602EB810194F861
:103E60000523405C00F03F0104F54270115494F8C2
:103E70000503C01C84F8050338BD00001B5B306DD2
:103E80000000000052656365697665206120646505
:103E90007620737461747573207265710A00000076
:103EA0002DE9FC47044690F8910694F8B225811D4F
:103EB000914205D9002084F8B205401EBDE8FC8778
:103EC00004F2C54904F2C44810F8092010F808109B
:103ED00004F2C347CDE900127E1E751EC35D825DEC
:103EE000415D16A014F04BFF94F89106415DC4F8B3
:103EF000A416825D41EA0221C4F8A416C25D41EA1B
:103F00000241C4F8A41610F8082041EA0261C4F87E
:103F1000A41610F809004FF47A7210FB02F0020A9E
:103F2000C4F8A82611A004F2946414F028FF14F831
:103F3000030C801D04F8030C0020BFE7436D6420D0
:103F40006465766963655F74696D655F616E735FF3
:103F5000706172736572203D2025782025782025B8
:103F6000782025782025780A000000005365636FCB
:103F70006E647353696E636545706F636820257561
:103F80002C204672616374696F6E616C5365636F58
:103F90006E642025750A000082688089411A4A43B0
:103FA00092FBF0F070470000F8B5044690F89106D7
:103FB00094F8B225411D914203D9002084F8B2053E
:103FC000F8BD04F2C441415C009104F2C3414F1EAC
:103FD0008E1E435CC25D815D3DA014F0D0FE204684
:103FE00017F095F848B194F891060325865D2046B0
:103FF000314616F069FD90B118E03FA014F0BFFE05
:104000003FA014F0BCFE40A014F0B9FE4AA014F08A
:10401000B6FE94F89106401D84F89106F8BD01257E
:1040200045A014F0ACFE46A014F0A9FE94F8910649
:10403000C119204615F02EFF07460146204617F00D
:1040400049F9401C07D105F002053BA014F097FE8A
:1040500041A014F094FE032D0FD13246394620467C
:1040600017F02AFE00B100253146204616F094FCD8
:10407000024631463DA014F082FE94F89106401DA0
:10408000C0B284F8910694F8B2158842C6D894F864
:10409000052304F206300A21115494F80523401C2C
:1040A000155494F80503801C84F8050394F86603FE
:1040B000821C0F2AB2D804F26732815494F8661336
:1040C000501C0D5494F86603801C84F86603F8BDF8
:1040D000436D6420646C5F6368616E6E656C5F70D5
:1040E0006172736572203D2025782025782025781F
:1040F000202578200A0000001B5B303B33336D0025
:104100005741524E203A2000446C4368616E6E6500
:104110006C526571206973206E6F742073757070B6
:104120006F7274656420666F7220746869732072A0
:104130006567696F6E0A00001B5B306D0000000050
:10414000494E56414C4944204348414E4E454C202F
:10415000494E4445580A0000494E56414C494420B6
:104160004652455155454E43590A00004D61635230
:1041700078314672657175656E6379205B202575AF
:10418000205D203D2025640A0000000010B5044693
:104190000E280ED318A014F0F2FD19A014F0EFFDB4
:1041A000214619A014F0EBFD1DA014F0E8FD02203B
:1041B00010BD1D4810F814208A4207D90EA014F033
:1041C000DEFD0FA014F0DBFD18A00BE000EB4400B7
:1041D000407888420DD208A014F0D1FD08A014F058
:1041E000CEFD1CA014F0CBFD0DA014F0C8FD0120E5
:1041F00010BD002010BD00001B5B303B33316D0053
:104200004552524F523A2000496E76616C696420E3
:10421000444D20636F6D6D616E642025780A000047
:104220001B5B306D0000000054D90100496E7661BF
:104230006C696420444D20636F6D6D616E64207302
:10424000697A652028746F6F20736D616C6C290A20
:1042500000000000496E76616C696420444D206363
:104260006F6D6D616E642073697A652028746F6F5D
:10427000206C6F6E67290A0010B51C2807D30EA0AA
:1042800014F07DFD0EA014F07AFD0FA00AE0134A91
:10429000105C88420DD008A014F071FD08A014F045
:1042A0006EFD0FA014F06BFD14A014F068FD01204A
:1042B00010BD002010BD00001B5B303B33316D0092
:1042C0004552524F523A2000496E76616C69642023
:1042D000444D20636F6D6D616E640A0070D90100FA
:1042E000496E76616C696420444D20636F6D6D6129
:1042F0006E642073697A650A000000001B5B306DF4
:10430000000000003EB503290DD818A014F037FDB9
:1043100018A014F034FD19A014F031FD22A014F0FF
:104320002EFD00203EBD10F8012B8DF8002010F866
:10433000012B8DF8012010F8012BC91E01908DF87A
:1043400002208DF80810684600F038F804469DF801
:1043500001109DF8000012F0BFFC9DF8000018B19C
:104360009DF8010009F044F820463EBD1B5B303B40
:1043700033316D004552524F523A2000444D204493
:104380006F776E6C696E6B206D75737420636F6EE2
:104390007461696E206174206C65617374203420CF
:1043A00062797465730A00001B5B306D00000000C9
:1043B0000148807A70470000900000202DE9F84302
:1043C0000446017A01258078FFF7E0FE10B1002055
:1043D000BDE8F883A6A014F0D2FCA7A014F0CFFC8F
:1043E000A278A74850F82210A6A014F0C8FCA9A0F3
:1043F00014F0C5FCA0780E281CD2DFE800F00746B8
:104400001C616B748F9EA6AEE91BFDFC6068B0F862
:104410000110007800F0A8F9012836D09FA014F010
:10442000AEFCA0A014F0ABFCA0A014F0A8FC99A0D6
:1044300014F0A5FC19E18EA014F0A1FC8EA014F0DC
:104440009EFC9EA014F09BFC92A014F098FC08F037
:10445000EBFD022807D091A014F091FC91A014F07C
:104460008EFC9CA00CE0227AA048616800F097FDC9
:1044700060B18AA014F083FC8AA014F080FC9CA098
:1044800014F07DFC83A014F07AFCEFE0A5A014F0FA
:1044900076FCA6A014F073FCA6A014F070FC7DA01E
:1044A00014F06DFC0121052001F034FB002012F016
:1044B00005FE032008F04CFE052009F017FDD5E0AD
:1044C000217A0122606812F087FB0128B2D108F03E
:1044D00017FFCBE0207A401EC2B26068411C007812
:1044E00000F0AAF92EE06068048802F0F1F9A04219
:1044F0000CD09BA00122006800901146684612F083
:104500006BFB012896D108F0FBFEAEE0002012F014
:10451000EDFD02F081FA08F01FFFA7E06068007867
:1045200000F0C4F900F060FF012801D108F04CFF51
:104530000021072001F0EEFA98E0217A002260685D
:1045400012F04AFB01287CD190E0227A854861680C
:1045500018F0B0F8002874D188E0824828388046E6
:10456000FFF796F806467F48227A54386168FDF7CF
:1045700095FD044680076FF01D0715D53EB94046EE
:10458000FFF786F818B101210D2001F0C3FA09F0F8
:10459000EFFC4046FFF757F806461E21384614F058
:1045A000C1FB304408F065FE34F002005ED06007C5
:1045B0000AD54046FFF747F804461E21384614F056
:1045C000B1FB204408F055FE012008F039FE4DE013
:1045D000207AC01C08F028FB06460A20B070227A18
:1045E000F01C6168FCF77CF808F0C0FB217AC91C5C
:1045F000CAB2314601E011E02AE0FDF730FE28BBE7
:104600002078002118B10121002020706070112055
:1046100001F080FA304600F0DFFC27E0207AC01C71
:1046200008F002FB06460D20B070227AF01C61688B
:10463000FCF756F808F09AFB217AC91CCAB2314639
:1046400000E012E0FDF70BFE0028E3D00025E1E7D3
:104650000B2008F06BFC08F089FB227A616802F0FD
:1046600081FF044608F0F4FB04B100252846AFE6BC
:104670001B5B303B33336D005741524E203A2000D4
:1046800058000020444D5F257320283078253032B3
:1046900078290A001B5B306D000000001B5B303B7B
:1046A00033316D004552524F523A20004E4F542044
:1046B0005245534554202121210A0000444D5F46B4
:1046C000494C455F444F4E4520646F6E776C696E70
:1046D0006B0A00004E6F2046696C6555706C6F6107
:1046E00064206F6E676F696E670A0000983700205C
:1046F000444D5F46494C455F444F4E4520626164DE
:104700002073657373696F6E5F636F756E74657226
:10471000206F7220626164206D6573736167650A42
:10472000000000001B5B303B33326D00494E464FAA
:10473000203A200046696C652075706C6F616420BA
:10474000444F4E45207769746820736572766572B0
:1047500020636F6E6669726D6174696F6E200A0006
:104760001200000044330020F8B50E46054601242F
:1047700002F084F9B04216D1012D0FD0022D0DD0D8
:10478000032D0BD0002415A014F0F9FA15A014F095
:10479000F6FA294615A014F0F2FA1AE002F08AF8A7
:1047A00014F0F6FA18E019A00122006800901146F2
:1047B000684612F011FA012801D108F0A1FD002489
:1047C00006A014F0DCFA07A014F0D9FA10A014F037
:1047D000D6FA17A014F0D3FA2046F8BD1B5B303B85
:1047E00033316D004552524F523A2000696E766166
:1047F0006C696420444D20726573657420636F6436
:10480000652028307825303278290A000F00000012
:10481000696E76616C696420444D207265736574BD
:104820002073657373696F6E20636F64650A00009F
:104830001B5B306D000000007CB50D460646012470
:104840001146FFF719FD68BB082E06D0092E0CD0C3
:104850000A2E13D00B2E25D118E01349287848755D
:1048600002F048F8401C1DD016E008222946684690
:1048700008F01AFA684602F07BF90DE0287812F089
:104880007DFB00F099FC08F023FD05E0002014F00A
:1048900073FB287812F000FC3146062001F03AF94B
:1048A00020467CBD0024FBE79000002010B50446A4
:1048B000014608A014F063FA0B48817AA14208D09F
:1048C00084720CB1012000E00020BDE8104012F01D
:1048D00019BC10BD4D55544520666F7220256420CB
:1048E000646179730A000000900000202DE9F04F08
:1048F000054604468148BFB091468B46A0464FF01E
:10490000000A012B2DD0C76A00F1080611460020CD
:104910005FF0010202FA00F33B4226D0784B1B5CA9
:104920008B4222D977A014F02AFA78A014F027FA43
:10493000784814F024FA78A014F021FA00208BF8BB
:10494000000070A014F01BFA70A014F018FA74A004
:1049500014F015FA70A014F012FA00203FB0BDE870
:10496000F08F664E076B0936D0E7401CC0B21C289A
:10497000D0D330781C2801D300203070C0B2012180
:10498000814039426FD02070307808F10104192835
:104990006AD2DFE800F00D10191D20363D51555840
:1049A0005C5F99998C626A99737A8C7E848C88009A
:1049B00000F02AFD0AE05148C17B11B1408B207004
:1049C00061E000F0DFFBFAE714F0BEF920707BE055
:1049D00014F0AAF9FAE702F025F800F18001BF29E6
:1049E00001D8403007E03F2801DD7F2003E010F1CF
:1049F000800F01DA8020207002F01AF880006070C9
:104A000062E000F017FD4FF46161B0FBF1F0D6E712
:104A1000FC216846FBF78BFE684600F033FC14F07F
:104A200091F93E994FF47A72B1FBF2F1411A4FF4C9
:104A30006160B1FBF0F0C2E700202060606043E0FD
:104A40002E48407DC2E7684601F080FF10E02B4809
:104A50004078BBE701F084FFB8E702F00FF8207060
:104A600002F00CF80FE037E021E0684601F062FF49
:104A700008226946204608F017F925E001F028FFD2
:104A8000207001F025FF000AB9E700200090019096
:104A9000EEE71A481E30017821708078AFE7204693
:104AA00000F068FB10E0204600F08AFC0CE015A046
:104AB00014F065F915A014F062F931781FA014F014
:104AC0005EF915A014F05BF931780D48405C0444A0
:104AD000611B49450EDCA0463078401CC0B23070E6
:104AE0001C28FFF44BAF00BFA8EB05008BF80000BB
:104AF000504633E74FF0010AF6E70000900000202F
:104B000070D901001B5B303B33316D004552524F71
:104B1000523A2000840302001B5B306D000000004D
:104B2000636865636B5F646D5F7374617475735FF5
:104B30006D61785F73697A650A000000436F6E7378
:104B4000747275637420444D207061796C6F616478
:104B5000207265706F72742C20756E6B6E6F776E3D
:104B600020636F6465203078253032780A000000B9
:104B7000F0B4847C16460D46133006FB040103FB9B
:104B800004F22846F0BCFBF7ABBD00000E4910B59F
:104B90000A784C780023A24212D0521CD2B20A707A
:104BA000022A00D10B70084A0B780C3252F82320ED
:104BB00002608868104420F07F408860012010BDAA
:104BC0000360002010BD0000280000207047000096
:104BD0002DE9FF4F85B04FF0000ADDE912989B46A2
:104BE0000D461646CDF804A05EE058465E4501D954
:104BF000044600E03446059804904F46484603F0CA
:104C0000FDFB0146002037B1012F02D0022F03D156
:104C100001E0042000E0012026A2D2E90032CDE923
:104C200002328DF80C0004FB01F08DF80A50009060
:104C30008DF80B404346052202A9049802F0E6FCD9
:104C4000002834D1CDF80090424651462046149BAE
:104C500000F031FA484603F0D1FB0746484603F01E
:104C6000CDFB4FF47F71B1FBF0F0202801D920205B
:104C700007E0484603F0C2FB01464FF47F70B0FBEB
:104C8000F1F047430020B9B2034603E008F80030D2
:104C9000401C80B28842F9D32819C5B20AEB04003F
:104CA00000F0FF0A301BC6B2002E9ED1019809B059
:104CB000BDE8F08F03060000000000000021C18065
:104CC00001818181016141618161818841817047F8
:104CD0002DE9FE4F82460CA81F4690E870009046D2
:104CE000894614F001F88DE870003B46424649467B
:104CF0005046FEF70BFF044613F0FDFF2046BDE8CB
:104D0000FE8F8089704701608280FFF7D7BF000067
:104D100010B504463AA014F032F83BA014F02FF876
:104D20003BA014F02CF843A014F029F834A014F0A0
:104D300026F835A014F023F840A014F020F83DA088
:104D400014F01DF82EA014F01AF82FA014F017F884
:104D5000A18840A014F013F836A014F010F828A091
:104D600014F00DF828A014F00AF8A1893EA014F060
:104D700006F830A014F003F821A014F000F822A0E7
:104D800013F0FDFF61893DA013F0F9FF29A013F096
:104D9000F6FF1BA013F0F3FF1BA013F0F0FF3CA0E5
:104DA000216913F0ECFF23A013F0E9FF14A013F026
:104DB000E6FF15A013F0E3FFD4E90501411A39A07D
:104DC00013F0DDFF1BA013F0DAFF0DA013F0D7FFE7
:104DD0000DA013F0D4FF38A0A16913F0D0FF15A0E7
:104DE00013F0CDFF06A013F0CAFF07A013F0C7FF12
:104DF00007A013F0C4FFBDE810400EA013F0BFBF22
:104E00001B5B303B33326D00494E464F203A200049
:104E10002D2D2D2D2D2D2D2D2D2D2D2D2D2D2D2DC2
:104E20002D2D2D2D2D2D2D2D2D2D2D2D2D2D2D2DB2
:104E30002D2D0A001B5B306D000000006669666F57
:104E40005F6374726C5F7072696E745F73746174A7
:104E50000A0000004275666665722073697A6520F3
:104E60003A2025640A00000043757272656E742052
:104E7000656C74203A2025640A000000467265655E
:104E800020737061636520203A2025640A000000C9
:104E90005772697465202020202020203A20256444
:104EA0000A0000005265616420202020202020207C
:104EB0003A2025640A00000044726F7020202020F0
:104EC000202020203A2025640A0000002DE9F84324
:104ED0001D4616460F468046089C13F005FF2B46DC
:104EE0003246394640460094FEF79FFE044613F0D2
:104EF00002FF2046BDE8F883408870472DE9FE4355
:104F0000D61E88460446082E47DB2078A179800308
:104F100001F00F0140EA8120A18B0E22491EC1F34E
:104F20000901084388F8002088F80100010A88F880
:104F300002100325184609F0D3FFD4F8089007465D
:104F4000384600907F1CA38B4A4601A9204600F0FA
:104F500076F808EB05000199016002990835083ED2
:104F60004160082EECDAE81EE18BC21700EB5270AC
:104F700001EBE00081B2E18394F82000FF2802D227
:104F8000401C84F82000C0B2032803D3A08BB1EBEF
:104F9000400F02D22846BDE8FE830020FBE7012A2D
:104FA00007D10978807901F00F01814201D10020F9
:104FB000704701207047010501D109F0B3BC70476B
:104FC00010B5002303E0C45CCC545B1C9BB293423D
:104FD000F9D310BD09F0E0BC10B5002821D0114B69
:104FE0000022001F196803E0814203D80A4649687D
:104FF0000029F9D152B11368841A9C4204D1006887
:1050000018441060104602E0506000E0186039B1AA
:1050100002680B1A934203D10B681A440260496874
:10502000416010BD6402002010B503E010C90368A0
:10503000634008C0131EA2F10102F7DC10BD2DE988
:10504000FC4781460020DDF8288008601E46924615
:105050000F4605460446486019E0E00608D106F10F
:105060001F016209490908FB012009F039FF0546C3
:1050700065B1E80709D074B1012C12D00AEBC40164
:10508000022238460C39FFF7CFFF6D08641CB4428A
:10509000E3D3BDE8FC87D9F810000090D9F81400DC
:1050A00004E0D9F818000090DAF80000019002221C
:1050B00069463846E7E72DE9F041069C3CB1012CF2
:1050C00009D0022C26D1BDE8F04100F0B8BDBDE802
:1050D000F04100F07BBD0746884615461E46002479
:1050E00016E008EB040004EBC40100EBC0008219D9
:1050F000685C02F8010B6818C91C437802F8013B90
:10510000807802F8010B284603F09FF9641CE4B292
:10511000BC42E6D3BDE8F0810148C07A7047000088
:105120009000002002490A78027049784170704767
:10513000A8000020064810B50078400601D50120DF
:1051400010BD01F05DFC0028FAD0022010BD000067
:105150009000002003490248C97A405C7047000073
:10516000CE1D0020900000200148407D70470000C7
:10517000900000200249CA6C0260096D41607047CE
:105180009000002000B500F005F84FF46161B0FB1D
:10519000F1F000BD0749C86B00F2A450D0E900232C
:1051A00080681A4410444FF47A72B0FBF2F0896BB5
:1051B0000844704790000020214810B54078002432
:1051C000810928D0012929D002292CD0032931D0E6
:1051D0001C4813F0F7FD012013F0E2FD1AA013F0B4
:1051E000CEFD1BA013F0CBFD16491BA013F0C7FD8D
:1051F0001DA013F0C4FD14A013F0C1FD14A013F002
:10520000BEFD1BA013F0BBFD17A013F0B8FD13F0FB
:10521000BFFD204610BD00F03F04FAE700F03F0458
:1052200014484443F5E700F03F004FF4616110FB80
:1052300001F4EEE700F03F00C0EB00108400E8E767
:1052400090000020B9D901001B5B303B33316D0069
:105250004552524F523A20006372617368206C6F5E
:1052600067203A25730A00001B5B306D00000000C8
:105270002D3E2000805101000148807870470000D9
:10528000900000200B49D1F8F820C0F8F820B1F8C0
:10529000F620A0F8F620B1F8F420A0F8F42011F8D8
:1052A000F32B00F8F32B0A7800F8F22911F8F22911
:1052B000FBF716BAE41D002010B50446132820D3CE
:1052C000114813F07FFD012013F06AFD0FA013F0C9
:1052D00056FD10A013F053FD0B4910A013F04FFD25
:1052E00012A013F04CFD09A013F049FD09A013F022
:1052F00046FD10A013F043FD0CA013F040FD13F089
:1053000047FD0D48005D10BD8CD901001B5B303B93
:1053100033316D004552524F523A2000637261732F
:1053200068206C6F67203A25730A00001B5B306DA4
:10533000000000002D3E2000A81D002010B50446EE
:10534000132820D3114813F03DFD012013F028FD50
:105350000FA013F014FD10A013F011FD0B4910A0C5
:1053600013F00DFD12A013F00AFD09A013F007FDC4
:1053700009A013F004FD10A013F001FD0CA013F020
:10538000FEFC13F005FD0D48005D10BDA2D9010023
:105390001B5B303B33316D004552524F523A200077
:1053A0006372617368206C6F67203A25730A00008E
:1053B0001B5B306D000000002D3E2000BB1D002057
:1053C0001CB5044607486946806CFCF738FFDDF8D9
:1053D00001002060BDF80500A0809DF80700A071C5
:1053E0001CBD0000900000200348807AFF2802D0F6
:1053F000002800D001207047900000200148007B69
:10540000704700009000002010B5FFF793FE0228BF
:1054100002D0002011F06AFE0148007810BD0000A3
:105420009000002002484079012800D000207047F9
:105430009000002010B513F085FC0249896A401ADB
:1054400010BD000090000020AFF30080034800680A
:10545000034BD3E906231043194670470415014056
:105460002800002000B50146FBF792FDC0F58860DA
:105470000844133000BD000030B593B000208DF813
:10548000400012F0A7FC382102A8FBF750F9694C44
:1054900010A80090E06902AD29460068AB1D6A1CA7
:1054A00012F0A0F99DF84000002872D062A10020FF
:1054B000FBF794FE18208DF84400012111A813F089
:1054C000EFF9002870D0012111A813F0E9F96D243B
:1054D00003282DD0012111A813F0E2F9042831D0BE
:1054E000012111A813F0DCF905283ED0012111A8F3
:1054F00013F0D6F9062842D0012111A813F0D0F9F3
:105500000A2847D0012111A813F0CAF910284CD05D
:10551000012111A813F0C4F9112845D150A1002090
:10552000FBF75CFE50A10020FBF758FE50A012E0F4
:105530004BA10020FBF752FE4BA10020FBF74EFED3
:1055400053A008E046A10020FBF748FE46A100203A
:10555000FBF744FE54A0CDE90040594B59A265A188
:105560000020FBF73BFE6AA15FE03DA10020FBF7B6
:1055700035FE3DA10020FBF731FE67A0EBE738A127
:105580000020FBF72BFE38A10020FBF727FE67A0C9
:10559000E1E714E032A10020FBF720FE32A1002059
:1055A000FBF71CFE66A0D6E742E02DA10020FBF72A
:1055B00015FE2DA10020FBF711FE67A0CBE701200F
:1055C00020719DF80800062832D39DF80920A91DF6
:1055D00012F0B6F807208DF80D009DF809006B1D3C
:1055E000411E401C8DF80E10C0B200900122C32154
:1055F000607813F08DFD5EA262A10020FBF7EEFD46
:1056000000240CE0200702D160A1FBF7E7FD281978
:105610005FA142790020FBF7E1FD641CA4B29DF874
:105620000900401CA042EDD858A10020FBF7D6FD90
:1056300013B030BD00020020676E73735F73636147
:105640006E5F6465616C20726571756573745F610E
:105650006C6D616E61635F7570646174650D0A00E5
:105660001B5B303B33316D004552524F523A2000A4
:10567000534D54435F4D4F44454D5F52435F494E38
:1056800056414C49445F535441434B5F49440000E9
:10569000534D54435F4D4F44454D5F52435F4E4F12
:1056A000545F494E49540000534D54435F4D4F449D
:1056B000454D5F52435F494E56414C4944000000FE
:1056C00050F701002E2E5C7372635C6C6F72615F29
:1056D00062617369635F6D6F64656D5F73646B5C5A
:1056E0006C626D5F6170705C6C626D5F6170702E7A
:1056F00063000000496E202573202D20257320288B
:105700006C696E65202564293A2025730A00000023
:105710001B5B306D00000000534D54435F4D4F4400
:10572000454D5F52435F425553590000534D54431A
:105730005F4D4F44454D5F52435F4641494C000029
:10574000534D54435F4D4F44454D5F52435F42417B
:10575000445F53495A450000534D54435F4D4F44F5
:10576000454D5F52435F4E4F5F54494D4500000029
:105770006770732073656E642073696E676C652053
:1057800069730000257320203A2000000D0A0000F4
:105790003078253032782000704700207047002094
:1057A0007047704770B50D460646002406E000BFFE
:1057B00006EB0430FFF7FFFB641CE4B2AC42F7D306
:1057C000002070BDFFF7FCBB10B5FFF703FC002005
:1057D00010BD1CB5002100910B460122019108F07B
:1057E000D4FF1CBD08B50090684609F03DF8D0F81C
:1057F00010050099C84000F0010008BD10B5012156
:105800002D2000F051F800231A4619462C2000F0F4
:1058100011F80122002311461D2000F00BF8012190
:10582000022000F041F80021BDE810402A2000F0DD
:105830003BB800007CB51C460B46002116460546C9
:1058400000910A46019108F0A0FFF6B113480178D3
:1058500019B90121017009F069FA1148012E006897
:10586000009009D0022E02D0032E05D101E00220C3
:1058700000E003208DF800000A4A6946284609F036
:10588000EDF90121284609F09DF9002C05D025707D
:105890002046BDE87C4000F019B87CBDE501002041
:1058A00034F7010045EF00007CB50022009213465A
:1058B00001920D4601220446114608F066FF294672
:1058C0002046BDE87C4009F008B80000002806D05A
:1058D0008168002903D00178014A42F8210070470D
:1058E000983D00200020401CC0B23028FBD37047F8
:1058F0000020401CC0B23028FBD370470020704706
:1059000008F0EBBF10B5074C2078002809D1064AF3
:1059100000210648FCF7D4FC08B1FCF7C5FC0120C7
:10592000207010BDE8010020B966000038F70100C2
:105930007047704770B505460948D1E90021C0E9B4
:105940000121084C2068FCF73DFD2846FBF74CFB85
:1059500001462068BDE870400022FCF7EFBC000063
:10596000E801002038F7010001480068FCF72ABD73
:1059700038F7010010B500F067F8FFF7C3FFFFF735
:105980003DFF2F2303222E21BDE81040012000F00F
:10599000ADB8000072B6BFF34F8F05480168054AE5
:1059A00001F4E06111430160BFF34F8F00BFFDE7D9
:1059B0000CED00E00400FA05002802D00149800146
:1059C0000847704741F7010038B5094C042568467F
:1059D00008F08CFE9DF80010042900D929462046C5
:1059E00008F0ACFE08B1FCF75FFC0148006838BD68
:1059F000F401002070B50C460546A04209D8FFF717
:105A0000E3FF611B491CB0FBF1F201FB12002844CB
:105A100070BDFFF7D9FF291B491CB0FBF1F201FB58
:105A20001200204470BD70B50D460446A84205DC46
:105A3000091B0020FFF7DEFF204470BD411B002042
:105A4000FFF7D8FF284470BD002008F059BE70B59C
:105A5000FFF7FCFC4FF47A73A0FB034501FB0351F5
:105A6000002200FB02104FF48041611840F1000059
:105A7000420442EAD13070BD10B5FFF7E7FCC00B1D
:105A800040EA414010BD00002DE9F041164C0023D2
:105A9000CFB21A4619462078FFF7CCFE002538060B
:105AA00001D5012100E000216078FFF729FF0121E5
:105AB000A078FFF725FF7806070E7006060E2078FF
:105AC000FFF790FE08B146F001060021A078FFF72D
:105AD00017FF6D1CEDB2082DE1D32078FFF779FE9A
