:020000040000FA
:1000000058638000150200001D0200001F0200005E
:100010002102000023020000250200000000000071
:1000200000000000000000000000000027020000A7
:1000300029020000000000002B0200002D02000039
:10004000F90800002F02000055120000F50F000013
:10005000491000002F02000055080000B10B0000FD
:100060002F0200002F0200002F0200002F020000CC
:100070002F0200002F0200002F0200002F020000BC
:100080007D1200004D0B00002F0200002F02000027
:10009000591000002F0200005D1000002F02000028
:1000A0002F0200002F0200002F0200002F0200008C
:1000B0002F0200002F0200000000000000000000DE
:1000C0002F0200002F0200002F0200002F0200006C
:1000D0002F0200002F0200002F0200002F0200005C
:1000E0002F020000000000000000000000000000DF
:1000F000000000002F020000000000002F0200009E
:1001000000000000000000000000000000000000EF
:1001100000000000000000000000000000000000DF
:1001200000000000000000000000000000000000CF
:1001300000000000000000000000000000000000BF
:1001400000000000000000000000000000000000AF
:10015000000000000000000000000000000000009F
:10016000000000000000000000000000000000008F
:10017000000000000000000000000000000000007F
:10018000000000000000000000000000000000006F
:10019000000000000000000000000000000000005F
:1001A000000000000000000000000000000000004F
:1001B000000000000000000000000000000000003F
:1001C000000000000000000000000000000000002F
:1001D000000000000000000000000000000000001F
:1001E000000000000000000000000000000000000F
:1001F00000000000000000000000000000000000FF
:10020000DFF80CD000F0E8FA00480047B96C0000B5
:10021000586380000648804706480047FEE7FEE72F
:10022000FEE7FEE7FEE7FEE7FEE7FEE7FEE7FEE7A6
:1002300061100000010200002DE9F05F054600207A
:1002400092469B4688460646814640241BE0284647
:1002500041464746224600F0AFFA53465A46C01A76
:10026000914110D311461846224600F096FA2D1AF5
:1002700067EB01084F4622460120002100F08DFA6D
:1002800017EB00094E41201EA4F10104DFDC4846B3
:1002900031462A464346BDE8F09F00000649074A1A
:1002A0000868504343F23902104408604008704720
:1002B0000149086070470000F00180006D4EC641A2
:1002C000014610B509683C22B1FBF2F302FB13139F
:1002D000B1FBF2F11D480360B1FBF2F302FB131313
:1002E000B1FBF2F118224360B1FBF2F302FB1313EE
:1002F000B1FBF2F183600A1D0723B2FBF3F403FBA9
:10030000142282618A0040F2B55102F66C32B2FBCF
:10031000F1F344334361B2FBF1F301FB132189088C
:10032000C1613B2903D3027D920700D0491C002202
:10033000074C13460261E25C8A4203D8891A5B1CAF
:100340000361F8E7491CC16010BD0000283B800034
:100350006617010070B5054601B90721541A241D1E
:10036000B4F5B67F09DD286800F036F9A04204DC58
:100370002868401C2860012070BD002C05DA286820
:10038000401E286000F028F90444072094FBF0F098
:10039000401C70BD2DE9F04F89B01D468A4680464D
:1003A000002401AF4FF0070B0192079057F824107B
:1003B00011F8010B47F8241048B125280DD0BAF1E7
:1003C000010F06D908F8010BAAF1010A5CE0641ECE
:1003D0005AE0002009B0BDE8F08F11F8010B47F892
:1003E00024100028F3D002264FF030095A284BD0B1
:1003F00020DC4D2873D014DC442871D008DC25287B
:10040000DDD041282AD042282ED043283CD130E0EC
:10041000462847D0472857D0482862D0492833D1AA
:1004200061E0523808282FD2DFE800F0787AA683FE
:100430008A97A6A86138192826D2DFE800F00D13A4
:1004400018202E253513255C252560642566256D2D
:10045000257375258B9BA0006AA000E070A0A96998
:100460000091B4E07DA000E088482969F8E788A001
:1004700007E06969642091FBF0F0133082E0E868DE
:1004800080E0641C47F82400002C8FDA002088F8F4
:1004900000000799A8EB01009CE7E8684FF02009ED
:1004A000009070E07EA0ECE7686900F26C7000904C
:1004B000D5E906126846FFF74DFF0099642091FBCD
:1004C000F0F200FB12105DE06869042600F26C7027
:1004D0000090D5E906126846FFF73CFF53E010E0B4
:1004E00048E0A8684EE0A8680C21173090FBF1F2B4
:1004F00001FB120001E0E8690326401C42E0286984
:10050000FBE768683EE069A0BBE7A8680C2801DA51
:1005100067A0B6E767A0B4E767A0B2E769A0B0E755
:1005200028682FE069A0ACE7A869012608BB07206E
:1005300028E0D5E90610401AC01D90FBFBF021E031
:10054000686900F26C700090D5E906126846FFF702
:1005500001FF17E00126A86914E0A9695846891D22
:1005600091FBF0F20BFB1211EA69511AC91D91FBC4
:10057000FBF007E056A084E758A082E704266869EC
:1005800000F26C70009000218DF8181006A80A2166
:1005900013E0009A92FBF1F301FB1322303200F8D2
:1005A000012D009A92FBF1F2009232B901E000F8BD
:1005B000019D321EA6F10106F9DC321EA6F10106EC
:1005C000E7DC5EE710F8011B0029FBD100994A1E09
:1005D00000920029F6DC54E781070CD1642190FBDE
:1005E000F1F201FB120151B94FF4C87190FBF1F225
:1005F00001FB120018B1002000F26D1070470120BD
:10060000FAE7000053756E004D6F6E00547565007B
:100610005765640054687500467269005361740040
:1006200053756E646179004D6F6E64617900547525
:100630006573646179005765646E65736461790000
:1006400054687572736461790046726964617900F7
:100650005361747572646179000000004A616E0034
:10066000466562004D617200417072004D61790013
:100670004A756E004A756C004175670053657000DD
:100680004F6374004E6F7600446563007417010079
:10069000256120256220256520255420255900004C
:1006A00025592D256D2D2564000000000A0000004D
:1006B000414D0000504D000025493A254D3A255343
:1006C0002025700025483A254D0000000900000053
:1006D000256D2F25642F25790000000025483A2537
:1006E0004D3A25530000000010B5431A934209D239
:1006F0008318881803E010F8011D03F8011D521E2D
:10070000F9D210BD40EA01039B0703D009E008C9F4
:10071000121F08C0042AFAD203E011F8013B00F8C6
:10072000013B521EF9D210BDD2B201E000F8012BFC
:10073000491EFBD270470022F6E710B513460A4661
:1007400004461946FFF7F0FF204610BD10B5002201
:1007500000E0521C835C8C5CA34201D1002BF8D1D9
:10076000D8B2E1B2401A10BD034611F8012B00F8CF
:10077000012B002AF9D1184670470246C9B200E0A1
:10078000401C0378002BFBD102E003788B4203D09E
:10079000401E9042F9D200207047202A04DB203A04
:1007A00000FA02F1002070479140C2F1200320FAC4
:1007B00003F3194390407047202A04DB203A21FAC2
:1007C00002F00021704721FA02F3D040C2F120026A
:1007D0009140084319467047064C074D06E0E06813
:1007E00040F0010394E8070098471034AC42F6D378
:1007F000FFF70AFD081C0100381C010070B58C18B9
:1008000010F8015B15F0070301D110F8013B2A1124
:1008100006D110F8012B03E010F8016B01F8016B11
:100820005B1EF9D12B0705D40023521E0DD401F80D
:10083000013BFAE710F8013BCB1A921C03E013F8D6
:10084000015B01F8015B521EF9D5A142D8D300200B
:1008500070BD00002DE9FC410025DFF89480009573
:100860004FF4807601242F460195304607F00EF8AC
:1008700038B1D8F80403204203D0304606F0FCFF1C
:100880002543361D64007F1CB6B2082FEDD34FF40C
:10089000BE74204606F0FAFF48B1204606F0ECFF91
:1008A00045F000456A460221002006F05BFF15F086
:1008B000FF0F16D0012600242E420ED008EB840133
:1008C000D1F81005D1F81015C0F30520094AC1F37D
:1008D000014152F8242002B190477600641C082C94
:1008E000EAD3002D02DA684607F0FEF9BDE8FC8184
:1008F000006000403402800070B54FF480763046CE
:1009000006F09DFE0F4DB40540B1304606F09EFE48
:100910000120C4F808032968002088474FF4827634
:10092000304606F08CFE00280AD0304606F08EFED7
:100930000220C4F808032968BDE870400120084778
:1009400070BD00000000800010B501F083F80028A1
:1009500003D0BDE8104001F05DB810BDBF2800D93C
:10096000BF200621094A01EA501100F03F0032F889
:10097000113002EB4101498801FB003080B24FF495
:100980000071884200D90846704700002A1601000D
:100990002DE9F0410E7804468846F00701D0042A7C
:1009A00003D06FF00500BDE8F081B00703D52078D3
:1009B00040F002002070F00602D598F80200E070C6
:1009C000B00602D598F80300607030076ED598F82D
:1009D0000100FFF7C3FF0546C01D802801DA102083
:1009E00004E0E81DC11700EB5170C010218AA37C00
:1009F000C0F5886004F11302204401FB0322133088
:100A0000824216D92F213148FFF7B7FE28B12F2196
:100A10002E48FFF7B2FE401C00E02C4840F24A236B
:100A200002462BA12CA00DF0DCFB2EA00DF0D9FB73
:100A30003CE0A089471B002F1CDDC81B83B223822A
:100A4000E0893A46C01BE081002120460CF04EFEB2
:100A5000218A3A46204601F07FF9B9B2204601F0DA
:100A6000BFFCA060204602F021FB211A01F2534195
:100A7000FFF761FEA58120782F2140F0040020704F
:100A80001248FFF77AFE28B12F211048FFF775FEB4
:100A9000401C00E00D4840F2632302461FA10EA057
:100AA0000DF09FFBA1891FA00DF09BFB70070AD5DD
:100AB00098F80100FFF752FFA189884203D12078FE
:100AC00020F00400207000206DE70000601B010092
:100AD0005741524E000000002573202825733A2507
:100AE0006429200049676E6F72696E6720574C2039
:100AF000696E63726561736520746F2061766F69DA
:100B000064206F76657277726974696E67207065AC
:100B10006E64696E6720646174610A00494E464FD5
:100B2000000000004E455720574C3A20524F534585
:100B30002D3E776C2025640A000000008089C01DCE
:100B4000802801D210207047C00870470F4830B489
:100B5000D0F8041149B10E494FF08074D1E9062351
:100B6000121943F10003C1E906230021C0F8401126
:100B7000C0F84411C0F84811C0F84C11C0F8001179
:100B8000C0F8041130BC0EF0CDBC000000100140D4
:100B900018008000410CC0034FF4FA72801810B5A1
:100BA00041F1000152000023FFF746FB10BD000099
:100BB0002DE9FE434FF48278404606F077FE4C4F15
:100BC00000254C4C012600B3404606F077FE94F811
:100BD0002E0010B194F82F10D1B18DF8005061683B
:100BE00001912189ADF80810E26832B1218B61834F
:100BF00062602181E56010B102E0257400E03E6092
:100C000021686846884784F82F5094F82E0060B316
:100C10004FF48077384606F049FE30B3384606F088
:100C20004DFE628B94F82D108A420AD9A2EB010086
:100C300080B260832289A2EB0000626802EB400070
:100C400005E007D1E06828B184F82F60658306F0DD
:100C500025FE04E08A4202D184F82F606583404675
:100C600006F02CFE2248001D06604FF488773846B7
:100C700006F01CFE48B1384606F020FE257402201E
:100C80008DF800002168684688474FF48A77384617
:100C900006F00CFE28B1384606F010FE2574BDE8BB
:100CA000FE834FF000484FF48C7967691DE000BF68
:100CB000B7FA87F028FA00F109EB80058F43284640
:100CC00006F0F4FD88B1284606F0F8FDA5F58C7510
:100CD000E8088DF8040045F38000401C8DF80060A2
:100CE0008DF80500216868468847002FE0D1D6E7D7
:100CF00000700040C0028000F8B506460C4814465B
:100D00000D46007808B900F0CBFA002300938DF867
:100D10000030684600F022FF22462946304600F0A7
:100D200009F804469DF8000000F03CFF2046F8BD9D
:100D3000481C800070B50E46144900EB400001EBE2
:100D4000C0051446E86A183520B101280FD00228E2
:100D500005D113E0284600F0D7FAA04201D20024C2
:100D600011E022463146284600F000FC0BE0284600
:100D700000F0CAFAA042F4D20446F2E7314628460F
:100D800000F0C7FB0446204670BD0000481C8000F0
:100D90000FB408B504A900916A46039900F004F85D
:100DA00001B05DF814FB00002DE9F04188B0064663
:100DB000644802904FF440600025CDE90305CDE979
:100DC000055690460C4600BF14F8011B002973D04D
:100DD000252908D002A800F07DFB05980028F3DA49
:100DE00008B0BDE8F08100200122217823291ED01F
:100DF0002B2919D02D2902D0302908D102E040F04A
:100E0000010001E040F00200641C002AEDD1002244
:100E10002178A1F130030A2B0CD202EB820201EB04
:100E20004202303A641CF3E740F00400ECE740F083
:100E30000800E9E70023CFB22E2F0BD114F8011FD1
:100E4000A1F130070A2F05D203EB830301EB430323
:100E5000303BF3E76C290DD068290BD0702954D0B2
:100E60000BDC252916D0582931D063290CD06429F0
:100E700013D114E014F8011BECE7732934D0752961
:100E80001BD0782909D122E0D8F80000011DC8F84C
:100E90000010017802A800F01DFB641C9DE7D8F843
:100EA00000100F1DC8F800700968CDE900200A2263
:100EB00002A800F041FAF0E733E0D8F800100F1D67
:100EC000C8F800700968CDE900200A2208E0D8F8C7
:100ED00000100F1DC8F800700968CDE9002010222D
:100EE00002A800F08DFAD8E7D8F80000011DC8F874
:100EF0000010076817F8011B0029CED002A800F0E7
:100F0000E9FA05980028F5DAC7E7D8F80000011DCE
:100F1000C8F8001001680820CDE90005034610223A
:100F2000DEE7059800287FF75BAF049820B1024602
:100F300004493046FFF7E0FEDDE90410084405905F
:100F40004EE700003C048000002205E0835C0BB10A
:100F500000207047521CD2B28A42F7D3012070475A
:100F600010B50A0901F00F0430F812300121A14038
:100F70008B4320F8123010BD00EBD10001F00703C5
:100F80000278012199408A43027070470A0901F0F2
:100F90000F0130F81200C84000F00100704700EB6C
:100FA000D10001F007010078C84000F0010070474F
:100FB000D20701D000F008B8FFF7D2BFD20701D0A6
:100FC00000F00EB8FFF7D8BF10B50A0901F00F0402
:100FD00030F812300121A1400B4320F8123010BD2F
:100FE00000EBD10201F0070310780121994008437A
:100FF00010707047F8B51248124E04464FF48C71C9
:1010000006F0F3FC00281AD00025C4F81851D4F8D3
:1010100018010090F07F3446FF2806D0A17F11B15F
:1010200006F0B8FB01E006F00AFC65772572D4E90A
:10103000002101B004F10800BDE8F0401047F8BD00
:10104000003000409C02800002494FF040200EF02A
:101050000DBB0000F00280000EF0B2B906F068BCD3
:101060002DE9F0414FF080516F4ED1F830016F4DB6
:10107000421C07D0D1F834710346012400220D2B05
:1010800005D00FE02A783378C2F30317F5E70FB1E4
:10109000012F07D14FF08043C3F80C21C3F8102172
:1010A000634B1A60431C05D0D1F8347103460D2BF5
:1010B00005D05DE02F783378C7F30317F7E70FB15A
:1010C000012F55D15B4B1B685B4F3B60594B1B1D80
:1010D0001B683F1D3B60574B08331B683F1D3B603F
:1010E000544B0C331B683F1D3B60524B10331B6845
:1010F0003F1D3B604F4B14331B683F1D3B604D4B06
:1011000018331B684C4F20373B604A4B1C331B681D
:101110003F1D3B60474B20331B683F1D3B60454BE9
:1011200024331B683F1D3B60424B28331B683F1D27
:101130003B60404B2C331B683F1D3B603D4B3033C5
:101140001B683D4F40373B603A4B34331B683F1DB3
:101150003B60384B38331B683F1D3B60354B3C339D
:101160001B683F1D3B60334B40331B683F1D3B609A
:10117000431C04D0D1F834110D2805D00EE0297895
:101180003078C1F30311F7E709B1012906D12B48E3
:101190000168C90702D06FF00101016028480168A9
:1011A00041F470010160BFF34F8FBFF36F8F4FF0B9
:1011B0001021D1F80C02234BC507234811D01C6025
:1011C0000468002CFCD0D1F80C4224F00104C1F8D2
:1011D0000C4201680029FCD01A6001680029FCD08B
:1011E0001AE0D1F80052002D03DBD1F80452002D93
:1011F00014DA1C600468002CFCD01224C1F80042F0
:101200000568002DFCD0C1F8044201680029FCD01B
:101210001A6001680029FCD000F010FA0C490B4854
:101220000860BDE8F0810000E00F00F0E80F00F07A
:10123000380500400404001020C5004000040040B0
:1012400088ED00E004E5014000E401400090D00397
:10125000EC018000014800680047000008008000A1
:10126000044801210160034A0349F832116000215A
:1012700001607047080501403546526E38B5064C8E
:1012800020680025002805D0044840688047256074
:101290002068009038BD000000010140100080006F
:1012A00010B5124C01202061606111A0A061A4F66C
:1012B0000C40E0614FF4406020620020A062606258
:1012C0000BA1C4E90B01A4F10C0161630A21A16324
:1012D0002064E063606409A1E01DFFF745FA08A1FE
:1012E0002046FFF741FA2020A07110BD481C800065
:1012F0005465726D696E616C0000000052545400B8
:1013000053454747455200000269C1688A4203D8E5
:101310008068401A104400E0501A401E70470028B0
:1013200009DB00F01F02012191404009800000F11B
:10133000E020C0F8801270472DE9FC5F0E00814666
:10134000DDE90C47C6F1000098469346824600D47A
:101350000846012503E000BF90FBFBF06D1C5845DB
:10136000FADAA84500D9454624B1002E01DB7807FA
:1013700000D5641EB80702D5B8F1000F0FD0F807EA
:101380000DD164B1A5420AD220214846641E00F066
:10139000A1F8D9F80C000028F3DABDE8FC9FD9F8D1
:1013A0000C000028F9DB002E02DA56462D2102E05F
:1013B000780707D52B21484600F08CF8D9F80C00A7
:1013C0000028EADB07F0030002280FD1B8F1000F74
:1013D0000CD15CB1A54209D230214846641E00F010
:1013E00079F8D9F80C000028F3DAD6E7CDE9004700
:1013F00043465A463146484600F002F8CDE7000021
:101400002DE9F84F8246DDE90A4B012698469146C0
:101410000D460846374602E0B0FBF9F07F1C484510
:10142000FAD2B84500D947465FEACB7017D1B4B1BC
:101430005FEA8B7002D5B8F1000F02D02020009037
:101440000BE03020FBE75046641E009900F042F8A4
:10145000DAF80C00002838DB0CB1A742F3D3DAF835
:101460000C00002831DB00BFB8F1010F02D9A8F150
:10147000010803E0B5FBF6F0484502D306FB09F688
:10148000F2E7DFF84C8000BFB5FBF6F000FB165525
:1014900018F80010504600F01DF8DAF80C0000288B
:1014A00003DBB6FBF9F6002EEED15FEACB700CD071
:1014B000002C0AD0A74208D220215046641E00F01A
:1014C00009F8DAF80C000028F2DABDE8F88F00001D
:1014D000ECF9000010B50446D4E90130421C9342F7
:1014E00005D323681954A260E068401CE060D4E989
:1014F0000102824209D121682069FFF7FDFBA16842
:10150000884203D04FF0FF30E06010BD0020A060A3
:1015100010BD2DE9F047C4681746894606464FF0CE
:1015200000083069A04201D9051B02E0B168201A09
:101530000D1AB0686D1E001BA84200D80546BD42BA
:1015400000D33D4670682A4620444946FFF7CCF850
:10155000B0687F1B2C44A844A944A04200D10024B9
:10156000F460002FDDD14046BDE8F0872DE9F04161
:10157000C6680446174688468068851B6068BD4279
:1015800006D93044FFF7B0F8F019E060BDE8F0810B
:101590002A463044FFF7A8F87E1B08EB05013246C7
:1015A0006068FFF7A1F8E660F0E7002809DB00F0CB
:1015B0001F02012191404009800000F1E020C0F8A5
:1015C00080127047002809DB00F01F0201219140C2
:1015D0004009800000F1E020C0F8001170470028A9
:1015E00009DB00F01F02012191404009800000F159
:1015F000E020C0F8001270474907090E002804DBFC
:1016000000F1E02080F80014704700F00F0000F1B6
:10161000E02080F8141D7047BFF34F8F0548016824
:10162000054A01F4E06111430160BFF34F8F00BF31
:10163000FDE700000CED00E00400FA05BFF34F8F5A
:1016400005480168054A01F4E06111430160BFF3F8
:101650004F8F00BFFDE700000CED00E00400FA052D
:1016600002E008C8121F08C1002AFAD1704770476B
:10167000002001E001C1121F002AFBD170470000C9
:1016800070B50D4604460979C07C01F00F0188420F
:1016900030D1401C00F00F00E07428786978EA78B7
:1016A00000EB0120A978090401EB02610844E1691B
:1016B0000844E0610020A074022084F828000CF0A7
:1016C0004AFE20622F211948FFF757F828B12F2131
:1016D0001648FFF752F8401C00E0144840F2F1139E
:1016E000024613A114A00CF07CFDD4E907104218A7
:1016F00014A017E02F210D48FFF73FF828B12F2144
:101700000A48FFF73AF8401C00E008484FF4FB7322
:1017100002461AA108A00CF064FD2879E17C00F0D3
:101720000F0218A0BDE870400CF05BBDF41A010078
:10173000494E464F000000002573202825733A25A6
:1017400064292000414C432053796E632074696DF5
:101750006520636F7272656374696F6E2025642003
:1017600073202D3E206E6577204750532054696DBD
:10177000653A20256420730A000000005741524E4C
:1017800000000000414C432053796E6320746F6B5E
:10179000656E206D69736D617463683A20256420FD
:1017A0002D2025640A00000070B5064600240CF0C8
:1017B000D2FD054696F8280048B1012803D13046ED
:1017C00001F08AFE18B1F069441900D101242046C5
:1017D00070BD8069704710B504460CF0BCFD024630
:1017E000606A236A0146002B07D0D21A914204D3C3
:1017F000881A814201D24FF4616010BD002141700E
:1018000081708174C174064AC0E906210F22016209
:101810000275CA22427580F8281002494162704759
:1018200040FA0100809940002DE9F041054600246E
:10183000AC7016460F464470A2E0385D88B10128AE
:101840002FD0022849D003286DD02F214F48FEF712
:1018500094FF002875D02F214C48FEF78EFF401CC6
:1018600082E0641CB44204D8687840F001006870DB
:1018700015E02F214548FEF780FF28B12F2143486E
:10188000FEF77BFF401C00E040489123024640A148
:1018900041A00CF0A6FC434943A00CF0A2FCE4B22A
:1018A0006EE004F10608B04508D839192846491CED
:1018B000FFF7E6FE687840F002001CE02F21334875
:1018C000FEF75BFF28B12F213048FEF756FF401C82
:1018D00000E02E489E2302461CE004F10208B045B9
:1018E0000BD83819407800F00F0180208840A8619B
:1018F000687840F00400687032E02F212348FEF73A
:101900003CFF28B12F212148FEF737FF421C00E0A1
:101910001E4AAD231EA120A00CF063FC214922A089
:101920000CF05FFC1CE004F10208B0450AD838193D
:10193000407810F00700A87412D0687840F00800D2
:10194000D9E710E02F211148FEF717FF28B12F210A
:101950000E48FEF712FF421C00E00C4AC023D9E7F4
:1019600008F0FF040CE00948C623024608A10AA0BB
:101970000CF037FC0B490DA01A310CF032FC00269C
:10198000A6423FF65AAF6878BDE8F081F41A01002C
:101990004552524F520000002573202825733A25E6
:1019A000642920000016010025730A0025732049D0
:1019B0006C6C6567616C2073746174650A2000004B
:1019C000002180F828100162704710B5921E92B273
:1019D000891C0CF0C2FC002800D0012010BD0000C2
:1019E0000EB534CACDE900420B46024602950749BE
:1019F0000020FFF7CDF9064E64254FF47A47741C9A
:101A00003846A0476D1EFAD1FFF706FECC1701003D
:101A100030F900000EB500210091CDE901106A46B1
:101A200044F20100FFF7DCFF0EBD0000084B9B787D
:101A300023B12AB120B10068037C1BB10820704794
:101A400007207047002303744174426118467047B1
:101A50003003800070B50BF067FC104800240B21A8
:101A6000047044700E4D817014206C602C706C708A
:101A7000FFF79BFD06211420FFF7BEFD1420FFF7A2
:101A8000A1FD0848046006211120FFF7B5FD0548B7
:101A9000001F0068A860002070BD000030038000B7
:101AA00018008000081501402DE9FC47DFF8809000
:101AB00099F8023083B378B31E4C4B1FA34202D374
:101AC0000720BDE8FC87436933B3437C012B26D054
:101AD000002704460025884616468DF800506846C3
:101AE00000F03CF801A80DF08BFED0B1012101708F
:101AF000114944600968C0E90218C0E904769DF8FC
:101B0000040089F801009DF8000000F04BF8142053
:101B1000FFF765FD2846D4E7FFE70820D1E70F4629
:101B2000D7E704259DF8000000F03CF8F2E700003C
:101B300030038000FBFFFF0004150140064989784F
:101B400039B130B1416921B10021017402210DF098
:101B5000C5BC0820704700003003800030B5EFF3AB
:101B6000108172B60D4A9468012324B103700029D4
:101B700000D162B630BD93604FF0E023D3F88051BE
:101B8000074C25401560C3F88041D3F88441546068
:101B90005A17C3F8842100220270E8E7240380006A
:101BA000FC06FFBD0B498A68002A11D000280FD11E
:101BB000EFF3108072B60B684FF0E022C2F80031EC
:101BC0004B68C2F8043100228A60002800D162B656
:101BD000704700002403800001490860704700003E
:101BE0009C01800030B53E4CC3B041A902A80CF066
:101BF00051F9002871D12168E9B39DF8090008283E
:101C000045D007DC082864D2DFE800F0151A1C2054
:101C10002436383C102848D008DC0A2814D00D2877
:101C200037D00E283BD00F2853D13AE0112846D0A8
:101C300012284ED147E00968E9B1BDF80C002CE04C
:101C400048682FE088682DE0C8682BE09DF80C00FC
:101C5000096921E04D6975B1BDF8020104A9C0B25E
:101C6000CDE900109DF80F309DF80E209DF90D1064
:101C70009DF90C00A8472CE0896921E09DF80C0033
:101C8000C96909E0096A1BE09DF80C0005E0486A93
:101C900008E09DF80C00896AD9B1884719E0C86A44
:101CA00000E0086BA8B1804713E04B6B8BB19DF847
:101CB0000E209DF80D109DF80C00984709E0896BE7
:101CC0000029E1D105E0CA6B1AB19DF80C10049807
:101CD00090479DF80900FF2887D143B030BD000030
:101CE0009C01800005494FF0FF32082841F8202070
:101CF00002D3084480F8522070470000340280006C
:101D0000F0B54FF0FF3512B10023082601E008239B
:101D10000C260C4C05E000BF54F823707F1C04D047
:101D20005B1CB342F8D32846F0BD26185DB286F896
:101D3000305044F82310002AF5D1E11881F8520000
:101D4000F1E70000340280000249084490F93000B5
:101D5000704700003402800030B4837C0C4613309E
:101D600004FB030030BC02FB03F1FEF7E4BC0000FF
:101D700070B5084C050009D010342168002907D03F
:101D800008682060496828468847F6E70834F4E781
:101D900070BD000020028000054A012120B1012809
:101DA00005D19170FFF7E4BF51700020FAE770474A
:101DB000200280007CB50546007C002438B9A9606B
:101DC00001210D2001F022FB022085F82000284689
:101DD00000F0FBF850B100200090019001AA694684
:101DE000284600F093F8009800F046F8284600F0E6
:101DF000DDF890B1284600F0E8F820B1284600F060
:101E0000B0F808BB24E000210D2001F0FFFA2846BD
:101E100000F0E2F80120E86002E0E868032806D25A
:101E2000284600F09EF880280ED9802410E009286A
:101E3000284604D200F095F84FF4615402E000F017
:101E400090F80C4CA04203D8284600F08AF80446CB
:101E5000686AFFF7C0FCA04203D8686AFFF7BBFCC2
:101E600004461E2100200CF0A7F92044BDE87C4068
:101E700005F0DBB940FA010000B5154995B00844FA
:101E8000139013A8FEF71CFA01462C226846FEF7B1
:101E90002BFC6B460FA21E210BA8FEF77BFA2F210D
:101EA0001248FEF76AFC28B12F211048FEF765FCA6
:101EB000401C00E00D4840F2BD1302460CA10EA0EC
:101EC0000CF08FF90BA90FA00CF08BF915B000BD29
:101ED0006E3DD51225612025592D256D2D256420B7
:101EE00025483A254D3A255320255A00941A0100D9
:101EF000494E464F000000002573202825733A25DF
:101F00006429200025730A00407870472DE9F041CC
:101F1000044690F8200015460E464FF000080128B0
:101F200009D0207C88B1606AFFF73EFC3060C5F8BC
:101F30000080BDE8F0810CF045F9A168471A0CF06B
:101F40003DF9A16938440844F0E70CF039F904F18F
:101F50001C02111F01F0A0FCA0693060E06928603C
:101F6000E7E7017C11B1406AFFF733BC4068704776
:101F700070B50025044605700A486561C4E901058D
:101F80000E46E56000F0D6FF6070257484F820509E
:101F9000A56166622146E561BDE870400022024805
:101FA00001F0FCBC40FA0100B51D00000146002014
:101FB0000A7C12B1486A01F085BA91F82010012913
:101FC00001D0022900D101207047017C11B1406A83
:101FD00001F082BA01F0B8BC017C11B1406AFFF790
:101FE000EFBC002180F82010816070472DE9F05F80
:101FF00026484168F1B3DFF898B00E688146DBF8F7
:10200000004087688078E11B21F07F45ED1CA8B96E
:10201000DFF884801F48C8F84403C8F8040311207F
:10202000FFF7C3FA1120FFF7CDFA4FF0010AC8F805
:1020300000A02F2005F02EFD89F802A0B54200D2A5
:102040003546134BE8193C3320F07F401860DBF82D
:1020500000105A46091B21F07F41001B20F07F40F1
:10206000C91C81420FD9106818602F2005F012FD9D
:10207000112000E003E0BDE8F05FFFF7B0BABDE873
:10208000F05F0BF051B9BDE8F09F00001800800030
:1020900004150140020001000010014000207047BB
:1020A00001461A20812938D016DC052929D006DC02
:1020B000052948D2DFE801F01B1D1F212300082954
:1020C00025D004DC06291ED007293CD11DE07F293C
:1020D0001FD0802937D11EE082390B2933D2DFE8A7
:1020E00001F01E20222426282A2C2E30070003204F
:1020F00070470220704705207047042070470D206C
:1021000070470E2070470F2070470C2070470B203F
:1021100070470A207047062070471220704716202B
:10212000704707207047132070471720704708201A
:1021300070471420704718207047092070471520F9
:102140007047192070471B207047000030B54FF0D2
:10215000FF320B4D0DE000BF10F8013B5A40002349
:1021600002F0010464422C405B1C84EA5202082BFA
:10217000F6DB0B1EA1F10101EEDCD04330BD000007
:102180002083B8ED2DE9F05F9A460446DDE90A9315
:102190008089DDF830B00F4618B3E088A68800F1DA
:1021A000010CBCFBF6F8216806FB18CC0D5C11F89D
:1021B0000CC0801C0CEB0525B0FBF6FC06FB1C00DC
:1021C000ADB20E5C8FB15FEA09000ED05AB153B1C7
:1021D00015801E70554501D85E4506D90320BDE81F
:1021E000F09F0220FBE70120F9E7E088A188C01CEE
:1021F00080B2B0FBF1F201FB1200E080B9F1000FF8
:1022000017D0B6B182198A420DD90A1A2168014441
:102210004846FEF769FAA188E0880A1AB21A4944CA
:10222000081A216803E02168324601444846FEF757
:102230005BFAE088A188304480B2B0FBF1F201FB88
:102240001200E080BFB1B5B142198A420DD90A1A15
:10225000216801443846FEF747FAA188E0880A1A47
:10226000AA1A3944081A216803E021682A46014461
:102270003846FEF739FAE088A188284480B2B0FBDE
:10228000F1F201FB1200E0806089ED1C304428442B
:102290006081A089401EA0816069401C60610020AF
:1022A0009DE72DE9FE4F15460C9E04467019C01C93
:1022B00087B2A08899468A46B84212D20320BDE868
:1022C000FE8F0023CDF80080CDF804801A46194611
:1022D0002046CDF80880FFF755FFA069401CA0619B
:1022E00001E04FF000086089B842EAD322892168F2
:1022F000280A88542089A188401C80B2B0FBF1F2E2
:1023000001FB1200208121680D542089A288401C05
:1023100080B2B0FBF2F102FB1100208121680E5463
:102320002089A188401C80B2B0FBF1F201FB1200B1
:102330002081FEB182198A420DD90A1A2168084407
:102340004946FEF7D1F9A18820890A1AB21A4944F0
:10235000091A206803E02168324608444946FEF71E
:10236000C3F92089A188304480B2B0FBF1F201FBAF
:10237000120020810DB380B2421989B28A420DD970
:102380000A1A216808445146FEF7AEF9A08821894F
:10239000421AAA1A5044411A206803E021682A46CA
:1023A00008445146FEF7A0F92089A188284480B24C
:1023B000B0FBF1F201FB120020816089C01B60813B
:1023C000A089401CA0812069401C2061002076E784
:1023D0000249C87A00B1401EC8727047840080006C
:1023E00082688089411A4A4392FBF0F070470000EE
:1023F00010B504460E280ED318A00BF0F2FE19A05B
:102400000BF0EFFE214619A00BF0EBFE1DA00BF028
:10241000E8FE022010BD1D4810F814208A4207D99A
:102420000EA00BF0DEFE0FA00BF0DBFE18A00BE001
:1024300000EB4400407888420DD208A00BF0D1FE9A
:1024400008A00BF0CEFE1CA00BF0CBFE0DA00BF0F5
:10245000C8FE012010BD002010BD00001B5B303BFA
:1024600033316D004552524F523A2000496E766129
:102470006C696420444D20636F6D6D616E6420252E
:10248000780A00001B5B306D0000000008FA0000B5
:10249000496E76616C696420444D20636F6D6D6197
:1024A0006E642073697A652028746F6F20736D6184
:1024B0006C6C290A00000000496E76616C6964202A
:1024C000444D20636F6D6D616E642073697A652081
:1024D00028746F6F206C6F6E67290A0010B51C2876
:1024E00007D30EA00BF07DFE0EA00BF07AFE0FA01E
:1024F0000AE0134A105C88420DD008A00BF071FE70
:1025000008A00BF06EFE0FA00BF06BFE14A00BF0FA
:1025100068FE012010BD002010BD00001B5B303B99
:1025200033316D004552524F523A2000496E766168
:102530006C696420444D20636F6D6D616E640A00A8
:1025400024FA0000496E76616C696420444D206372
:102550006F6D6D616E642073697A650A000000001A
:102560001B5B306D000000003EB503290DD818A09C
:102570000BF037FE18A00BF034FE19A00BF031FE63
:1025800022A00BF02EFE00203EBD10F8012B8DF88E
:10259000002010F8012B8DF8012010F8012BC91E26
:1025A00001908DF802208DF80810684600F032F88E
:1025B00004469DF801109DF800000AF0A5FF9DF863
:1025C000000018B19DF8010004F0DCFE20463EBD7D
:1025D0001B5B303B33316D004552524F523A200065
:1025E000444D20446F776E6C696E6B206D7573740B
:1025F00020636F6E7461696E206174206C65617315
:102600007420342062797465730A00001B5B306D9E
:10261000000000002DE9F8430446017A0125807886
:10262000FFF7E6FE10B10020BDE8F883A6A00BF08E
:10263000D8FDA7A00BF0D5FDA278A74850F822102E
:10264000A6A00BF0CEFDA9A00BF0CBFDA0780E2824
:102650001CD2DFE800F007461C616B748F9EA6AEAB
:10266000E91BFDFC6068B0F80110007800F0A8F9E3
:10267000012836D09FA00BF0B4FDA0A00BF0B1FD57
:10268000A0A00BF0AEFD99A00BF0ABFD19E18EA060
:102690000BF0A7FD8EA00BF0A4FD9EA00BF0A1FDFA
:1026A00092A00BF09EFD04F0B3FC022807D091A08D
:1026B0000BF097FD91A00BF094FD9CA00CE0227A0A
:1026C000A048616800F07AFB60B18AA00BF089FD38
:1026D0008AA00BF086FD9CA00BF083FD83A00BF07D
:1026E00080FDEFE0A5A00BF07CFDA6A00BF079FD2E
:1026F000A6A00BF076FD7DA00BF073FD0121052057
:1027000000F084FE00200AF0A9FF032004F002FD7F
:10271000052004F0C1FED5E0217A012260680AF0AC
:1027200073FE0128B2D104F0C7FDCBE0207A401E31
:10273000C2B26068411C007800F0AAF92EE060681F
:10274000048801F0B1F8A0420CD09BA001220068DF
:102750000090114668460AF057FE012896D104F011
:10276000ABFDAEE000200AF091FF01F0F9F804F0B3
:10277000BDFDA7E06068007800F0C4F900F07EFCC1
:10278000012801D104F0EAFD0021072000F03EFEFF
:1027900098E0217A002260680AF036FE01287CD198
:1027A00090E0227A854861680CF0BAFD002874D167
:1027B00088E0824828388046FFF7F8FB06467F48C5
:1027C000227A54386168FFF72FF8044680076FF0CB
:1027D0001D0715D53EB94046FFF7E8FB18B10121AA
:1027E0000D2000F013FE04F099FE4046FFF7B9FB00
:1027F00006461E2138460BF0DFFC304404F015FD80
:1028000034F002005ED060070AD54046FFF7A9FB0E
:1028100004461E2138460BF0CFFC204404F005FD91
:10282000012004F0E9FC4DE0207AC01C04F076FAA7
:1028300006460A20B070227AF01C6168FDF754FF4A
:1028400004F00CFB217AC91CCAB2314601E011E048
:102850002AE0FFF7BAF828BB2078002118B101213F
:10286000002020706070112000F0D0FD304600F094
:10287000B1FA27E0207AC01C04F050FA06460D2079
:10288000B070227AF01C6168FDF72EFF04F0E6FAC2
:10289000217AC91CCAB2314600E012E0FFF795F870
:1028A0000028E3D00025E1E70B2004F079FB04F0D9
:1028B000D5FA227A616801F035F9044604F034FB58
:1028C00004B100252846AFE61B5B303B33336D0077
:1028D0005741524E203A20004C008000444D5F2565
:1028E000732028307825303278290A001B5B306D40
:1028F000000000001B5B303B33316D004552524FEE
:10290000523A20004E4F5420524553455420212125
:10291000210A0000444D5F46494C455F444F4E45F7
:1029200020646F6E776C696E6B0A00004E6F2046F4
:10293000696C6555706C6F6164206F6E676F696E4E
:10294000670A0000E0368000444D5F46494C455F11
:10295000444F4E45206261642073657373696F6EE6
:102960005F636F756E746572206F722062616420A0
:102970006D6573736167650A000000001B5B303B87
:1029800033326D00494E464F203A200046696C654F
:102990002075706C6F616420444F4E4520776974D8
:1029A000682073657276657220636F6E6669726DFA
:1029B0006174696F6E200A00120000008C32800082
:1029C000F8B50E460546012400F0D6FFB04216D1F8
:1029D000012D0FD0022D0DD0032D0BD0002415A0FA
:1029E0000BF0FFFB15A00BF0FCFB294615A00BF02C
:1029F000F8FB1AE000F04AFF0BF0FCFB18E019A00E
:102A0000012200680090114668460AF0FDFC01288A
:102A100001D104F051FC002406A00BF0E2FB07A05A
:102A20000BF0DFFB10A00BF0DCFB17A00BF0D9FBC9
:102A30002046F8BD1B5B303B33316D004552524F91
:102A4000523A2000696E76616C696420444D2072B0
:102A50006573657420636F64652028307825303293
:102A600078290A000F000000696E76616C696420A5
:102A7000444D2072657365742073657373696F6E5E
:102A800020636F64650A00001B5B306D000000006E
:102A90007CB50D46064601241146FFF71FFD68BBB5
:102AA000082E06D0092E0CD00A2E13D00B2E25D1BD
:102AB00018E013492878487500F0FCFE401C1DD032
:102AC00016E008222946684604F068F9684600F0D6
:102AD0006DFF0DE028780AF021FD00F0CBF904F03D
:102AE000D3FB05E000200BF0D9FB28780AF0A4FD09
:102AF0003146062000F08AFC20467CBD0024FBE71E
:102B00008400800010B50446014608A00BF069FB64
:102B10000B48817AA14208D084720CB1012000E0F8
:102B20000020BDE810400AF0BDBD10BD4D55544514
:102B300020666F7220256420646179730A000000AA
:102B4000840080000E4910B50A784C780023A24218
:102B500012D0521CD2B20A70022A00D10B70084A5D
:102B60000B780C3252F8232002608868104420F061
:102B70007F408860012010BD0360002010BD000070
:102B80001800800070470021C180018181810161AE
:102B9000416181618188418170472DE9FE4F824604
:102BA0000CA81F4690E87000904689460BF0E8FAA2
:102BB0008DE870003B46424649465046FFF7E2FA30
:102BC00004460BF0E4FA2046BDE8FE8F01608280E7
:102BD000FFF7D9BF10B504463AA00BF002FB3BA0AB
:102BE0000BF0FFFA3BA00BF0FCFA43A00BF0F9FA54
:102BF00034A00BF0F6FA35A00BF0F3FA40A00BF07E
:102C0000F0FA3DA00BF0EDFA2EA00BF0EAFA2FA09F
:102C10000BF0E7FAA18840A00BF0E3FA36A00BF026
:102C2000E0FA28A00BF0DDFA28A00BF0DAFAA1896F
:102C30003EA00BF0D6FA30A00BF0D3FA21A00BF097
:102C4000D0FA22A00BF0CDFA61893DA00BF0C9FAB1
:102C500029A00BF0C6FA1BA00BF0C3FA1BA00BF0C7
:102C6000C0FA3CA021690BF0BCFA23A00BF0B9FA22
:102C700014A00BF0B6FA15A00BF0B3FAD4E90501D5
:102C8000411A39A00BF0ADFA1BA00BF0AAFA0DA067
:102C90000BF0A7FA0DA00BF0A4FA38A0A1690BF075
:102CA000A0FA15A00BF09DFA06A00BF09AFA07A067
:102CB0000BF097FA07A00BF094FABDE810400EA0B5
:102CC0000BF08FBA1B5B303B33326D00494E464FE1
:102CD000203A20002D2D2D2D2D2D2D2D2D2D2D2D5E
:102CE0002D2D2D2D2D2D2D2D2D2D2D2D2D2D2D2D14
:102CF0002D2D2D2D2D2D0A001B5B306D00000000A9
:102D00006669666F5F6374726C5F7072696E745F20
:102D1000737461740A000000427566666572207300
:102D2000697A65203A2025640A00000043757272B2
:102D3000656E7420656C74203A2025640A000000DA
:102D40004672656520737061636520203A202564B2
:102D50000A0000005772697465202020202020207E
:102D60003A2025640A00000052656164202020207A
:102D7000202020203A2025640A00000044726F7051
:102D800020202020202020203A2025640A00000056
:102D90002DE9F8431D4616460F468046089C0BF069
:102DA000EFF92B463246394640460094FFF779FA50
:102DB00004460BF0ECF92046BDE8F883012A07D160
:102DC0000978807901F00F01814201D1002070471C
:102DD0000120704710B5002821D0114B0022001FA0
:102DE000196803E0814203D80A4649680029F9D1ED
:102DF00052B11368841A9C4204D1006818441060D0
:102E0000104602E0506000E0186039B102680B1A09
:102E1000934203D10B681A4402604968416010BDB7
:102E2000F40180000148C07A7047000084008000EF
:102E300002490A7802704978417070479C0080000E
:102E4000064810B50078400601D5012010BD00F0FD
:102E500081FD0028FAD0022010BD0000840080000F
:102E600003490248C97A405C70470000161D800083
:102E700084008000214810B540780024810928D0C2
:102E8000012929D002292CD0032931D01C480BF06C
:102E9000C5F901200BF0B0F91AA00BF0A2F91BA0A4
:102EA0000BF09FF916491BA00BF09BF91DA00BF02E
:102EB00098F914A00BF095F914A00BF092F91BA04F
:102EC0000BF08FF917A00BF08CF90BF093F920465B
:102ED00010BD00F03F04FAE700F03F0414484443FB
:102EE000F5E700F03F004FF4616110FB01F4EEE7FD
:102EF00000F03F00C0EB00108400E8E78400800091
:102F00006DFA00001B5B303B33316D004552524F70
:102F1000523A20006372617368206C6F67203A2513
:102F2000730A00001B5B306D000000002D3E200086
:102F300080510100014880787047000084008000C3
:102F40000B49D1F8F820C0F8F820B1F8F620A0F825
:102F5000F620B1F8F420A0F8F42011F8F32B00F8D3
:102F6000F32B0A7800F8F22911F8F229FDF7BCBB1F
:102F70002C1D800010B50446132820D311480BF0F7
:102F80004DF901200BF038F90FA00BF02AF910A031
:102F90000BF027F90B4910A00BF023F912A00BF04E
:102FA00020F909A00BF01DF909A00BF01AF910A0E7
:102FB0000BF017F90CA00BF014F90BF01BF90D48EE
:102FC000005D10BD40FA00001B5B303B33316D00EB
:102FD0004552524F523A20006372617368206C6F01
:102FE00067203A25730A00001B5B306D000000006B
:102FF0002D3E2000F01C800010B50446132820D37D
:1030000011480BF00BF901200BF0F6F80FA00BF0B4
:10301000E8F810A00BF0E5F80B4910A00BF0E1F870
:1030200012A00BF0DEF809A00BF0DBF809A00BF002
:10303000D8F810A00BF0D5F80CA00BF0D2F80BF0DC
:10304000D9F80D48005D10BD56FA00001B5B303BFF
:1030500033316D004552524F523A20006372617312
:1030600068206C6F67203A25730A00001B5B306D87
:10307000000000002D3E2000031D80000348807AE0
:10308000FF2802D0002800D0012070478400800073
:10309000AFF3008003480068034BD3E906231043D5
:1030A00019467047041501401800800000B501461C
:1030B000FDF744FDC0F588600844133000BD0020D2
:1030C00070477047500704D002F00700C0F10800B5
:1030D0000244D0B270471CB5002100910B4601227A
:1030E000019104F00EFB1CBD08B50090684604F089
:1030F00077FBD0F810050099C84000F0010008BD2A
:1031000010B501211D2000F04DF800231A46194684
:103110001F2000F00DF8012200231146172000F0B7
:1031200007F80121BDE81040192000F03BB800006D
:103130007CB51C460B4600211646054600910A4602
:10314000019104F0DEFAF6B11348017819B90121B2
:10315000017004F05BFD1148012E0068009009D059
:10316000022E02D0032E05D101E0022000E0032050
:103170008DF800000A4A6946284604F0DFFC012168
:10318000284604F08FFC002C05D025702046BDE8B1
:103190007C4000F019B87CBD890180005017010007
:1031A000CD7C00007CB500220092134601920D46B2
:1031B00001220446114604F0A4FA29462046BDE83F
:1031C0007C4004F046BB0000002806D0816800293E
:1031D00003D00178014A42F821007047603A80002C
:1031E0000020401CC0B22A28FBD370470020401C9E
:1031F000C0B22A28FBD370470020704704F029BBD7
:1032000010B5074C2078002809D1064A002106484D
:10321000FEF70CFC08B1FEF7FDFB0120207010BD8D
:103220008C0180001137000054170100704770476F
:1032300070B505460948D1E90021C0E90121084CD3
:103240002068FEF77BFC2846FDF7A4FC01462068B9
:10325000BDE870400022FEF727BC00008C01800012
:103260005417010001480068FEF768BC54170100BC
:10327000EFF31081016072B67047006880F3108828
:10328000704772B6704762B6704710B5FFF7B8FF67
:10329000FFF736FF02231C220321BDE81040012066
:1032A00000F0A0B872B6BFF34F8F05480168054A19
:1032B00001F4E06111430160BFF34F8F00BFFDE7F0
:1032C0000CED00E00400FA05002802D0014980015D
:1032D000084770476117010010B5FFF7DBFEFCF7E8
:1032E000E7FFBDE81040FCF7D9BF70B50C460546B6
:1032F000A04209D8FFF7F0FF611B491CB0FBF1F2B7
:1033000001FB1200284470BDFFF7E6FF291B491C92
:10331000B0FBF1F201FB1200204470BD70B50D4608
:103320000446A84205DC091B0020FFF7DEFF20440D
:1033300070BD411B0020FFF7D8FF284470BD70B559
:10334000FFF7A8FE4FF47A73A0FB034501FB03517E
:10335000002200FB02104FF48041611840F1000090
:10336000420442EAD13070BD10B5FFF793FEC00BA6
:1033700040EA414010BD0000F8B5CFB26846FFF703
:1033800077FF174C00231A4619462078FFF7D0FE26
:103390000025380601D5012100E000216078FFF703
:1033A0002DFF0121A078FFF729FF7806070E700690
:1033B000060E2078FFF798FE08B146F001060021BE
:1033C000A078FFF71BFF6D1CEDB2082DE1D320782C
:1033D000FFF781FE6846FFF750FF3046F8BD00005A
:1033E0009801800010B50C46064918460A704C70CA
:1033F0008B700021FFF7D6FE2046BDE8104000216B
:10340000FFF7D0BE980180007047704770B5124C2E
:1034100005460E46E07A13280DD910A00AF0E1FE09
:1034200010A00AF0DEFE11A00AF0DBFEBDE870403D
:103430001AA00AF0D6BE2846FFF79CFD28B9E07A0C
:103440001849401CC0B2E0720D5431462846BDE810
:10345000704000F029B80000840080001B5B303B06
:1034600033316D004552524F523A2000204D6F6467
:10347000656D20726561636820746865206D617890
:10348000206E756D626572206F66206173796E6360
:1034900068206D6573736167650A00001B5B306DA2
:1034A00000000000161D8000132808D2044B1A5C8F
:1034B000FF2A01D2521C1A54014A13321154704788
:1034C000F01C80000146002091F82810012901D04D
:1034D000022900D10120704770B5054601240AF089
:1034E0003AFF296A19B1401A696A884200D9002452
:1034F000204670BD10B50A4C207868B101280AD169
:1035000040F6B83160680BF04BFF002803D000BFD5
:10351000FFF7BEFD606010BD01202070F8E70000DD
:10352000A00180001CB50AF0EFF80F4CA060FFF777
:10353000A8FEFFF7AAFE04F10C00FEF74DFB0B49B5
:10354000A0680AF073FEFFF79EFEA06801A900685C
:1035500001F02CF900909DF80530BDF806200449D3
:103560000020FDF715FC1CBDA0018000E51B00003C
:10357000C41B01002DE9F047394E002780463D4627
:10358000DFF8E090D6F804A057E003D00446D0F866
:103590001C8035E099F8002002EB4201521CD2B2A7
:1035A00089F8002009EBC10199F80230091D9A42FF
:1035B00001D189F8005048680A780446012A12D0DF
:1035C000022A02D0032A3BD108E00BF057FF00B1DA
:1035D0000127257434E00574C06900E07068002894
:1035E000F9D170602CE0207C50BB88686060C868AE
:1035F000A0600869E0604869A061F07800B165608A
:103600006268B168184B501A20F07F40984202D28D
:10361000A168084406E0881AA16820F07F40814232
:1036200002D9081A206000E0256065600120A560CD
:1036300020742046E5610BF003FFB8F10000A4D12F
:1036400099F8001099F801008142A3D117B9716867
:10365000514502D00120BDE8F0870020FBE70000C3
:103660001800800030038000FFFF7F0010B588B095
:10367000044620216846FDF75EF8202269460220B4
:103680000AF00EFD1C21684603F0FAFA07998842F9
:103690000FD1BDF80000A4F8A8040198A4F8D00147
:1036A0000298C4F8AA04BDF80C00A4F8AE0408B04F
:1036B00010BD06A00AF095FD06A00AF092FD07A035
:1036C0000AF08FFD10A00AF08CFDF0E71B5B303B89
:1036D00033336D005741524E203A20004E6F207612
:1036E000616C6964204465764E6F6E636520696E17
:1036F000204E564D2C207573652064656661756C8F
:1037000074202830290A00001B5B306D0000000087
:1037100003484168002901D000680847704700004D
:1037200090018000F8B500F25462044690F89A13B4
:1037300000F29B3000231546064603F003FF0028E5
:1037400018D000F025F984F85D060C2000900A4896
:1037500094F89A232B4631460446FFF719FB20B113
:10376000BDE8F84005A00AF03CBD2046BDE8F840A1
:10377000FFF730BAF8BD0000F42880004669666F94
:103780002070726F626C656D0A000000F8B5044627
:1037900090F89E0108B1012300E0002304F1240207
:1037A00004F1310094F830101546064603F0CAFEC5
:1037B000002836D094F89C0104F82D0F0C200090BE
:1037C0001848E2782B4631460446FFF7E1FA002814
:1037D00022D015480AF022FD01200AF00DFD13A0A9
:1037E0000AF0FFFC13A00AF0FCFC0F4913A00AF03A
:1037F000F8FC16A00AF0F5FC0CA00AF0F2FC0DA0F3
:103800000AF0EFFC13A00AF0ECFC10A00AF0E9FCAF
:10381000BDE8F8400AF0EEBC2046BDE8F840FFF7EE
:10382000D9B9F8BDF4288000D8FA00001B5B303B02
:1038300033316D004552524F523A2000637261732A
:1038400068206C6F67203A25730A00001B5B306D9F
:10385000000000002D3E204669666F2070726F6286
:103860006C656D0A00000000014610B5064804466C
:1038700002F017F800F06EF8012804D12046BDE8E8
:10388000104002F04BBC10BD3C278000014802F004
:103890007ABE0000481E800013460A4601460148D1
:1038A00002F0A0BE481E8000014802F0CDBE00001C
:1038B000481E80000146014802F0C9BE481E800033
:1038C00000487047F42880000A460146014801F08C
:1038D00057B80000481E80001FB504460121134B55
:1038E000134A00208DE80F00124A2346A2F140013E
:1038F0000E4802F0D3FE10494FF40072A1F13000DF
:10390000FFF764F90F4A0E4900920C48CDE9010116
:10391000072322460549039001F0CCFF04B0064876
:10392000BDE81040143800F049B80000481E80007F
:103930002537000058258000242980003C2780007E
:103940008D370000B55A0000014802F0FBBF0000AF
:10395000481E8000014801F026B80000481E800083
:10396000014802F0FFBF0000481E8000014802F03D
:10397000EBBD0000481E8000014803F000B80000C5
:10398000481E8000014803F029B80000481E80004E
:10399000014803F026B80000481E800013460A467E
:1039A0000146014803F020B8481E80000BF082BC9D
:1039B0000146014803F01EB8481E800010B50446B9
:1039C0001421FCF7B8FE0520207110BD2DE9F04749
:1039D000ADF5047D0D46DDE98C4A81464FF48276D3
:1039E0001F469046314642A8FCF7A5FE314601A885
:1039F000FCF7A1FE3B46424640F2075142A8009424
:103A000000F01FF8601C80B20090E01C82B201AB95
:103A100042A9484600F0CCF800280ED19DF80410C9
:103A20002970002909D101AA05E053185D780AF828
:103A30000150491C89B2A142F7D30DF5047DBDE8C0
:103A4000F08730B50D0A039C05704170827000212B
:103A500004E05A5C4518491CEA7089B2A142F8D3C7
:103A600030BD3EB50C4600210191029105218DF833
:103A700004100B218DF805100121009102AB0222E8
:103A800001A900F095F8002802D19DF808102170D6
:103A90003EBD2DE9F043C5B08846DDE94C46814680
:103AA0001D4617464FF4847101A8FCF744FE002020
:103AB000439005208DF8040006208DF805008DF850
:103AC0000670002001A9325C0B18401CC0B2DA70ED
:103AD0000428F8D3002004E02A5C0B18401CDA719B
:103AE00080B2A042F8D30120E41D0090A2B243AB03
:103AF000484600F05DF8002803D19DF80C2188F8B5
:103B0000002045B0BDE8F0831CB505A31B68CDE9D6
:103B100000230B46022201A900F0B2F81CBD0000F0
:103B2000041500001CB505A31B68CDE900230B4656
:103B3000022201A900F0A4F81CBD0000041400003A
:103B400070B50B4D0446287820B16078BDE8704010
:103B500000F088B820780021FFF750FB2078012181
:103B6000FFF74CFB607800F07DF80120287070BDF5
:103B7000880180002DE9F04116460F460546FFF703
:103B8000DFFF28780021FFF739FB002406E0002141
:103B90006868FFF7F1FB3855641CA4B2B442F6D351
:103BA00028780121FFF72AFB0020BDE8F081000002
:103BB0002DE9F0479946174688460446089EFFF7C8
:103BC000BFFF20780021FFF719FB002507E000BFA9
:103BD00018F805106068FFF7CFFB6D1CADB2BD4251
:103BE000F6D320780121FFF709FBD6B12046FFF775
:103BF000A7FF20780021FFF701FB00216068FFF795
:103C0000BBFB002507E000216068FFF7B5FB09F862
:103C100005006D1CADB2B542F5D320780121FFF748
:103C2000EDFA0020BDE8F08770B5044680780021E9
:103C3000FFF7E4FA41F288352846FFF745FBA07804
:103C40000121FFF7DBFA2846FFF73EFB0348FFF7A9
:103C50003BFB034901200870002070BD400D0300AC
:103C60008801800010B504462046FFF73DFA012880
:103C7000FAD010BD10B5FFF763FF002010BD0000A3
:103C80002DE9F047994617460E460446DDF8208098
:103C9000FFF756FF20780021FFF7B0FA002505E076
:103CA000715D6068FFF768FB6D1CADB2BD42F7D374
:103CB000002506E019F805106068FFF75DFB6D1C34
:103CC000ADB24545F6D320780121FFF797FA307859
:103CD000012809D170781B2806D1054900200870F9
:103CE0004FF4FA70FFF7F0FA0020BDE8F08700000B
:103CF000880180001CB506A2126801928DF806109A
:103D000000210B460091032201A9FFF7B9FF1CBD5A
:103D1000022700003EB50C461CA101AB09680291C8
:103D20000021019104210091022202A9FFF740FF26
:103D300000282AD19DF804104908494221709DF8B5
:103D400005104908494261709DF80610A1709DF860
:103D50000710C1F34011E1709DF80710C1F3001185
:103D600021719DF80710C1F3C00161719DF8071022
:103D7000C1F38001A1719DF80710C1F34001E17109
:103D80009DF8071001F0010121723EBD0204000000
:103D9000B0F5965F01D81F206DE041F2A862904215
:103DA00001D8172067E041F68442904201D80F20E5
:103DB00061E042F2E452904201D81E205BE042F6FC
:103DC000B452904201D8162055E043F608129042B2
:103DD00001D80E204FE044F62C42904201D81D201D
:103DE00049E045F66832904201D8152043E047F299
:103DF0007422904201D80D203DE049F658029042CD
:103E000001D81C2037E04BF23472904201D81420C4
:103E100031E04EF2E842904201D80C202BE0184AE3
:103E2000904201D81B2026E0164A904201D8132068
:103E300021E0154A904201D80B201CE0134A904221
:103E400001D81A2017E0124A904201D8122012E03D
:103E5000104A904201D80A200DE00F4A904201D842
:103E6000192008E00D4A904201D8112003E00C4AC5
:103E7000904203D809200870002070470320704743
:103E800078310100686E010034CA01002862020026
:103E900040DB02003C930300C0C2040060B3050095
:103EA0003820070000B50B4600F009F84FF47A718E
:103EB000484319680844401EB0FBF1F000BDC179C9
:103EC000072909D2DFE801F0040806080408060003
:103ED000012102E0022100E00021027902B1012269
:103EE0001144827911444279012A07D0002202EB61
:103EF000C1010288C0781044084470470822F6E7E0
:103F0000014600200B2909D2DFE801F008090F154E
:103F1000181A1C08060C120042F6B100704743F64E
:103F20000950704745F26110704747F612207047FC
:103F30004AF2C32070474FF224407047024870474E
:103F4000024870470248704748E8010090D00300DB
:103F500020A107003EB50C460EA101AB09680291F5
:103F60000021019103210091022202A9FFF720FE06
:103F700000280ED19DF804104908494221709DF98E
:103F80000510891C891061709DF806104908494286
:103F9000A1703EBD0204000010B50C4600F00DF803
:103FA0004FF47A7100FB01F36078FFF7A9FF014637
:103FB0005818401EB0FBF1F010BD2DE9F043827897
:103FC000C7780B78012A04D00026062B03DC0125D4
:103FD00002E00126F9E700258A78042A02D94FF089
:103FE000010801E04FF000080479012C1ED00024E4
:103FF000C9783C4401B10121494203EB4101B8F1C8
:10400000000F3ED0072A13D04FF0000C9444D6B1D5
:1040100003EB45064FEAC40919FB0CF4B61EC6EBC8
:10402000C607B4EB870F06DCB10022E00224DFE70D
:104030004FF0010CEAE7F4004E01644206EB8406FF
:1040400019FB0C6414E09E0006EBC5061C3E26F02E
:104050000706B6EBC40F03DAB6EBC70F00DDFE00B0
:10406000D6EBC40400D5002414FB0CF404EB41147B
:1040700089000C44641E94FBF1F1B8F1000F0BD0E1
:104080000EE09F0007EBC507083F06B9143FD7EBCA
:10409000C404EDD50024EBE7121D4A4302F10801E8
:1040A0000088091D00EB45000844012101EB800058
:1040B0009B1E9840401EBDE8F08300003EB50C46B4
:1040C0000AA101AB0968029100218DF804100121B9
:1040D0000091022202A9FFF76BFD002804D19DF890
:1040E00004104908494221703EBD0000020500004D
:1040F0003EB50C460AA101AB09680291002101916D
:1041000002210A46009102A9FFF752FD002805D1BD
:104110009DF8041021709DF8051061703EBD0000EF
:10412000020300001CB505A10222096801910021CB
:104130000B46009101A9FFF7A3FD1CBD021800006A
:104140001FB513A40DF1040C1CCC8CE81C000A78DC
:104150008DF806204A788DF807208A788DF8082097
:10416000CA788DF809204A68120C8DF80A208A88CE
:10417000120A8DF80B2009798DF80C1000210B46DE
:104180000091092201A9FFF77BFD04B010BD0000DA
:10419000020D000000000000000000007FB512A525
:1041A00001AE38CD86E838000B0E8DF806300B0CCA
:1041B0008DF807300B0A8DF808308DF80910110EB4
:1041C0008DF80A10110C8DF80B10110A8DF80C10D7
:1041D00000218DF80D200B4600910A2201A9FFF75E
:1041E0004FFD04B070BD000002240000000000007C
:1041F000000000001FB519A40DF1040C1CCC8CE8C4
:104200001C000A68120E8DF806200A68120C8DF840
:1042100007200A88120A8DF808200A788DF80920EC
:104220000A798DF80A204A798DF80B208A68120ED7
:104230008DF80C208A68120C8DF80D200A89120A5C
:104240008DF80E20097A8DF80F1000210B46009191
:104250000C2201A9FFF714FD04B010BD020F0000ED
:1042600000000000000000001FB515A40DF1040CB3
:104270001CCC8CE81C000A88120A8DF806200A78EB
:104280008DF807208A788DF80820CA788DF80920E3
:104290000A798DF80A204A798DF80B208A798DF8F1
:1042A0000C20CA798DF80D20097A8DF80E100021A6
:1042B0000B4600910B2201A9FFF7E2FC04B010BDF0
:1042C0000210000000000000000000001FB513A451
:1042D0000DF1040C1CCC8CE81C000A788DF806202B
:1042E0004A788DF807208A788DF80820CA788DF8EA
:1042F00009200A798DF80A204A798DF80B208A79ED
:104300008DF80C20C9798DF80D1000210B46009115
:104310000A2201A9FFF7B4FC04B010BD0206000098
:1043200000000000000000001CB508A21268019205
:104330000A0A8DF806208DF8071000210B4600911F
:10434000042201A9FFF79CFC1CBD0000022500000F
:104350000EB50CA3D3E90023CDE901230A788DF82B
:1043600006204A788DF807208A788DF80820C978C9
:104370008DF8091000210B460091062201A9FFF7D4
:104380007FFC0EBD020F0000000000000EB510A360
:10439000D3E90023CDE901230A88120A8DF806200B
:1043A0000A788DF807208A788DF80820CA788DF869
:1043B00009200A798DF80A2049798DF80B1000211F
:1043C0000B460091082201A9FFF75AFC0EBD000020
:1043D00002100000000000001CB506A21268019245
:1043E0008DF8061000210B460091032201A9FFF76A
:1043F00047FC1CBD021B00001CB506A212680192FE
:104400008DF8061000210B460091032201A9FFF749
:1044100037FC1CBD022B00000EB50CA3D3E9002312
:10442000CDE901230A788DF806204A788DF8072017
:104430008A788DF80820C9788DF8091000210B467C
:104440000091062201A9FFF71BFC0EBD021500001A
:10445000000000001CB506A2126801928DF806103B
:1044600000210B460091032201A9FFF709FC1CBDA6
:10447000020E00000EB50CA3D3E90023CDE9012301
:104480000A0E8DF806200A0C8DF807200A0A8DF80E
:1044900008208DF8091000210B460091062201A981
:1044A000FFF7EEFB0EBD0000020B00000000000055
:1044B000C9034FF47A72B1FBF2F100F045B830B4A1
:1044C000C9034FF47A74D203B1FBF4F1B2FBF4F2F6
:1044D00030BC00F001B800007FB510A60DF1040C4F
:1044E00070CE8CE870000C0C8DF806400C0A8DF82C
:1044F0000810110C8DF80910110A8DF80A1000210E
:104500008DF80C308DF80B200B4600918DF807408C
:10451000092201A9FFF7B4FB04B070BD021400002A
:1045200000000000000000001CB506A21268019205
:104530008DF8061000210B460091032201A9FFF718
:104540009FFB1CBD021300000EB50AA3D3E9002394
:10455000CDE901230A0C8DF806200A0A8DF808100F
:1045600000218DF807200B460091052201A9FFF7D5
:1045700087FB0EBD0209000000000000C9034FF4D4
:104580007A72B1FBF2F100F02FB800001CB505A162
:1045900002220968019100210B46009101A9FFF751
:1045A0006FFB1CBD021900001CB505A102220968A1
:1045B000019100210B46009101A9FFF761FB1CBD91
:1045C000021A00001CB507A31B6801938DF80610A2
:1045D00000218DF807200B460091042201A9FFF766
:1045E0004FFB1CBD021100000EB50AA3D3E9002346
:1045F000CDE901230A0C8DF806200A0A8DF808106F
:1046000000218DF807200B460091052201A9FFF734
:1046100037FB0EBD020A0000000000001CB506A218
:10462000126801928DF8061000210B4600910322BA
:1046300001A9FFF725FB1CBD021700001CB507A44C
:10464000246801948DF806208DF8073000930B46FE
:10465000042201A9FFF7ACFA1CBD0000010A00000A
:104660001CB505A31B68CDE900230B46022201A956
:10467000FFF706FB1CBD0000010900001CB506A2E7
:10468000126801928DF8061000210B46009103225A
:1046900001A9FFF7F5FA1CBD010F00001CB507A327
:1046A00041EA82011B6801938DF8061000210B4638
:1046B0000091032201A9FFF7E3FA1CBD01160000D7
:1046C0000EB50CA3D3E90023CDE901230A0E8DF822
:1046D00006200A0C8DF807200A0A8DF808208DF8AC
:1046E000091000210B460091062201A9FFF7C8FA24
:1046F0000EBD000001140000000000001CB506A261
:10470000126801928DF8061000210B4600910322D9
:1047100001A9FFF7B5FA1CBD0128000038B5054610
:1047200000200C460090002228466B46114600F0FF
:104730000EF800280AD1009921B12846FFF7C0FFE2
:10474000002803D1002C01D00099216038BD7CB530
:1047500015460C461E4606226946FFF70BFA00284E
:1047600023D19DF8001024B101F0010262704908C4
:1047700021709DF801103DB101F00102AA70C1F352
:1047800042026A7009092970002E0ED09DF80510AA
:104790009DF802209DF8043001EB02619DF8032092
:1047A000120402EB0322114431607CBD3EB50C467D
:1047B0000DA101AB09680291002101910421009132
:1047C000022202A9FFF7F4F900280CD19DF8041089
:1047D00021709DF8051061709DF807109DF8062066
:1047E00001EB022161803EBD01010000FFF71CBA10
:1047F0001FB513A40DF1040C1CCC8CE81C000A7826
:104800008DF806204A788DF807208A788DF80820E0
:10481000CA788DF809200A798DF80A204A798DF82E
:104820000B208A798DF80C20C9798DF80D100021A4
:104830000B4600910A2201A9FFF722FA04B010BD2D
:104840000112000000000000000000007FB512A56A
:1048500001AE38CD86E838000B0E8DF806300B0C13
:104860008DF807300B0A8DF808308DF80910110EFD
:104870008DF80A10110C8DF80B10110A8DF80C1020
:1048800000218DF80D200B4600910A2201A9FFF7A7
:10489000F7F904B070BD0000011300000000000033
:1048A000000000001CB505A1022209680191002149
:1048B0000B46009101A9FFF7E3F91CBD011D0000A3
:1048C0001CB506A2126801928DF8061000210B4655
:1048D0000091032201A9FFF7D3F91CBD01100000CC
:1048E0003EB50EA4D4E90034CDE901340B0A01EB46
:1048F00043018DF80610110E8DF80710110C8DF87C
:104900000810110A8DF8091000218DF80A200B46B5
:104910000091072201A9FFF7B3F93EBD011B00007A
:10492000000000001CB506A2126801928DF8061066
:1049300000210B460091032201A9FFF7A1F91CBD3C
:10494000011C00003EB50BA4D4E90034CDE90134CC
:104950008DF80610110C8DF80710110A8DF808104B
:1049600000218DF809200B460091062201A9FFF7CE
:1049700087F93EBD0117000000000000FFF77AB97B
:1049800010B590F8C0460023032C05D00020087015
:104990001070431E184610BD90F8A0460C7090F899
:1049A000A1061070F6E790F8520670472DE9F04125
:1049B000044690F89B03002541094FF0FF3607D0CD
:1049C000022905D0042903D0062901D0072903D1E3
:1049D000354619A009F005FC94F85206012806D0C6
:1049E00015B1002084F89A032846BDE8F081002D17
:1049F000F7D194F89C0394F89D1394F89F2300EB4F
:104A0000012094F89E13090401EB02614718D4F8C1
:104A1000F801B842E8D035460FA009F0E2FB10A03B
:104A200009F0DFFB3A4610A0D4F8F81109F0D9FBE1
:104A300017A009F0D6FBD4E7204241442046747900
:104A40007065203D20257520666F722052582046E3
:104A500072616D650A0000001B5B303B33326D00F4
:104A6000494E464F203A200020424144204465767A
:104A700041646472203D20257820666F7220525870
:104A8000204672616D6520616E642025780A0A00F7
:104A90001B5B306D0000000070B5002580F80052EF
:104AA00080F84356C0F82C5680F8525680F890563D
:104AB00080F8FC110446012084F8D80184F89B5446
:104AC00084F8382084F89A56C4F86056A4F8A8549C
:104AD000A4F8D05184F8225684F823560007C4F86D
:104AE000240684F84256C4F8A456C4F8A856C4F85C
:104AF000B056C4F8AC56C4F8B456202104F2646031
:104B0000C4F8B856FBF717FEC4F8AA54A4F8AE547C
:104B10002046BDE8704000F00BBB062180F843162C
:104B2000704710B50446002084F8430609F048FB9E
:104B30000830C4F894062046BDE8104009F0AEBF26
:104B4000F0B5044687B0D0F8440601AA214607F024
:104B5000C1FD04F2536305AA9DF80410D4F844067D
:104B600007F012FD94F853160525042955D004DCEE
:104B7000002974D0032904D14BE0052970D00A29FB
:104B80006FD074A009F02DFB94F84306022869D079
:104B9000032801D0042866D094F853060A2833D09D
:104BA00073A009F01EFB74A009F01BFB94F85316C8
:104BB00073A009F016FB79A009F013FB794809F0FE
:104BC0002DFB012009F018FB69A009F00AFB6AA07F
:104BD00009F007FB734974A009F003FB6FA009F00B
:104BE00000FB63A009F0FDFA63A009F0FAFA72A0D5
:104BF00009F0F7FA69A009F0F4FA09F0FBFA00BF2E
:104C000094F853060A2802D1062084F8430607B018
:104C1000F0BD0598C4F86006B6E70598C4F85406D8
:104C20009DF80430D4F8440603EBC30101EB4102C4
:104C30007A2101EB8201465AA4F85866782606EBE1
:104C40008202865AA4F85A664FF48B6606EB430339
:104C5000C65C84F89A63835E425E314604E014E0E9
:104C600015E068E06BE071E054A009F0BAFA204664
:104C7000FFF79CFE002887D048A009F0B2FA5CA09C
:104C800009F0AFFA84F853567EE767A054E094F831
:104C90004206059FD8B3D4F8E40100EB4001C1EB14
:104CA000C0104FF47A7101EBC00600BF09F080FA22
:104CB000D4F84C26D4F860161144D4F88426324433
:104CC000114494F84026791A04EB4202B2F96426A2
:104CD000891A0E1A09F062FA361AD4F8840600907E
:104CE00094F84016334604EB4100B0F9642654486A
:104CF00009F077FA002E12DA94F8400604EB40012E
:104D0000B1F86406A0F10100A1F864063CE7FFE7F2
:104D1000D4F8E4614FF47A7006FB00F6C6E7B3DD21
:104D200094F8400604EB4000B0F8641601F101016C
:104D3000A0F8641628E743A009F053FA24E70320FB
:104D400084F84306002084F89B0459E784F843560E
:104D500056E70000726563656976652049742052E4
:104D60004144494F206572726F722025750A000018
:104D70001B5B303B33316D004552524F523A20009D
:104D80006C72315F6D61632D3E706C616E6E657229
:104D90005F73746174757320256400001B5B306D54
:104DA00000000000F61001006372617368206C6FF0
:104DB00067203A25730A00002D3E20007061796C4F
:104DC0006F61642073697A652072656365697665D1
:104DD000203D2025752C20736E72203D20256420F7
:104DE0002C2072737369203D2025640A00000000A6
:104DF000526563656976652061207061636B6574D7
:104E0000204275742072656A656374656420616E02
:104E10006420746F6F206C61746520746F207265FC
:104E200073746172740A000052505F5354415455B8
:104E3000535F52585F4352435F4552524F520A00EC
:104E4000101901006C72316D6163207461736B2005
:104E500061626F7274656420627920746865207283
:104E60006164696F706C616E6E65720A00000000AB
:104E700070B5044690F8E95509F0C4F905EBC50092
:104E8000D4F81C2600EB400104EB8106D2F8CC30AC
:104E900006F1480110469847002820D0404809F004
:104EA000BDF9012009F0A8F93EA009F09AF93FA048
:104EB00009F097F93A493FA009F093F941A009F0A8
:104EC00090F938A009F08DF938A009F08AF93FA0CF
:104ED00009F087F93BA009F084F909F08BF98C21DE
:104EE000D4F81C0603F0CCFB002820D02C4809F095
:104EF00095F9012009F080F92AA009F072F92BA098
:104F000009F06FF926492BA009F06BF92DA009F0E3
:104F100068F924A009F065F924A009F062F92BA032
:104F200009F05FF927A009F05CF909F063F905EBD6
:104F3000450004EBC00500BF07F081FBD5F88413E2
:104F4000081A0028F8DC716FD4F81C0603F0A3FBE4
:104F5000002820D0124809F061F9012009F04CF92D
:104F600010A009F03EF911A009F03BF90C4911A07D
:104F700009F037F913A009F034F90AA009F031F962
:104F80000AA009F02EF911A009F02BF90DA009F0E3
:104F900028F909F02FF907F052FBC4F8B40570BDE9
:104FA0008F1001001B5B303B33316D004552524F77
:104FB000523A20006372617368206C6F67203A2553
:104FC000730A00001B5B306D000000002D3E2000C6
:104FD00070B5044690F8E95509F014F905EBC500E1
:104FE000D4F81C2600EB400104EB8106D2F8D03047
:104FF00006F1480110469847002820D0404809F0A3
:105000000DF9012009F0F8F83EA009F0EAF83FA0F8
:1050100009F0E7F83A493FA009F0E3F841A009F0A8
:10502000E0F838A009F0DDF838A009F0DAF83FA080
:1050300009F0D7F83BA009F0D4F809F0DBF8CC214F
:10504000D4F81C0603F01CFB002820D02C4809F0E3
:10505000E5F8012009F0D0F82AA009F0C2F82BA049
:1050600009F0BFF826492BA009F0BBF82DA009F0E4
:10507000B8F824A009F0B5F824A009F0B2F82BA0E4
:1050800009F0AFF827A009F0ACF809F0B3F805EB88
:10509000450004EBC00500BF07F0D1FAD5F8841332
:1050A000081A0028F8DC716FD4F81C0603F0F3FA34
:1050B000002820D0124809F0B1F8012009F09CF82E
:1050C00010A009F08EF811A009F08BF80C4911A07E
:1050D00009F087F813A009F084F80AA009F081F814
:1050E0000AA009F07EF811A009F07BF80DA009F0E4
:1050F00078F809F07FF807F0A2FAC4F8B40570BD9B
:10510000621001001B5B303B33316D004552524F42
:10511000523A20006372617368206C6F67203A25F1
:10512000730A00001B5B306D000000002D3E200064
:1051300070B504464FF0FF300025C4E97C50C4F838
:105140003056C4F81456A4F82A5684F8765384F8D6
:10515000055384F8665384F8135684F8B25584F8DE
:105160009156C4F8EC51C4F8A05404F5F67409F053
:1051700027F8C4F8B80284F8AD5484F8D45484F8FD
:10518000D55484F8D65484F8B45484F8B554A5752D
:10519000E57570BD70B5044690F8E95509F032F830
:1051A00005EBC500D4F81C2600EB400004EB8001A1
:1051B000D2F8CC3010461C319847002820D05848EF
:1051C00009F02CF8012009F017F856A009F009F8A9
:1051D00056A009F006F8524956A009F002F859A065
:1051E00008F0FFFF4FA008F0FCFF50A008F0F9FF07
:1051F00056A008F0F6FF53A008F0F3FF08F0FAFFFE
:105200000221D4F81C0603F03BFA002820D04448C1
:1052100009F004F8012008F0EFFF42A008F0E1FFD8
:1052200042A008F0DEFF3E4942A008F0DAFF45A0A8
:1052300008F0D7FF3BA008F0D4FF3CA008F0D1FF56
:1052400042A008F0CEFF3FA008F0CBFF08F0D2FF4D
:1052500004EB4500B0F8582404EB8500D0F838146E
:10526000D4F81C0603F010FA002820D02C4808F0CF
:10527000D5FF012008F0C0FF2AA008F0B2FF2BA044
:1052800008F0AFFF26492BA008F0ABFF2DA008F0D7
:10529000A8FF24A008F0A5FF24A008F0A2FF2BA0DF
:1052A00008F09FFF27A008F09CFF08F0A3FF05EB84
:1052B000450004EBC00500BF07F0C1F9D5F8841321
:1052C000081A0028F8DCD4F81C160868096A884710
:1052D000002820D0124808F0A1FF012008F08CFF20
:1052E00010A008F07EFF11A008F07BFF0C4911A070
:1052F00008F077FF13A008F074FF0AA008F071FF10
:105300000AA008F06EFF11A008F06BFF0DA008F0D6
:1053100068FF08F06FFF07F092F9C4F8B00570BDA0
:10532000351001001B5B303B33316D004552524F4D
:10533000523A20006372617368206C6F67203A25CF
:10534000730A00001B5B306D000000002D3E200042
:1053500070B5044690F8E95508F054FF05EBC50018
:10536000D4F81C2600EB400004EB8001D2F8D030CA
:1053700010461C319847002820D0584808F04EFFAE
:10538000012008F039FF56A008F02BFF56A008F0C6
:1053900028FF524956A008F024FF59A008F021FF29
:1053A0004FA008F01EFF50A008F01BFF56A008F009
:1053B00018FF53A008F015FF08F01CFF0221D4F8D5
:1053C0001C0603F05DF9002820D0444808F026FFB1
:1053D000012008F011FF42A008F003FF42A008F0EE
:1053E00000FF3E4942A008F0FCFE45A008F0F9FE8F
:1053F0003BA008F0F6FE3CA008F0F3FE42A008F047
:10540000F0FE3FA008F0EDFE08F0F4FE04EB4500CE
:10541000B0F8582404EB8500D0F83814D4F81C06F2
:1054200003F032F9002820D02C4808F0F7FE0120C4
:1054300008F0E2FE2AA008F0D4FE2BA008F0D1FE6E
:1054400026492BA008F0CDFE2DA008F0CAFE24A00E
:1054500008F0C7FE24A008F0C4FE2BA008F0C1FE8F
:1054600027A008F0BEFE08F0C5FE05EB450004EBE2
:10547000C00500BF07F0E3F8D5F88413081A002828
:10548000F8DCD4F81C160868096A8847002820D080
:10549000124808F0C3FE012008F0AEFE10A008F08C
:1054A000A0FE11A008F09DFE0C4911A008F099FE85
:1054B00013A008F096FE0AA008F093FE0AA008F0D8
:1054C00090FE11A008F08DFE0DA008F08AFE08F0F5
:1054D00091FE07F0B4F8C4F8B00570BD08100100E3
:1054E0001B5B303B33316D004552524F523A200026
:1054F0006372617368206C6F67203A25730A00003D
:105500001B5B306D000000002D3E200010B50446EE
:10551000022084F8430608F053FE0830C4F89406CD
:10552000012084F898062046BDE81040AFF30080C3
:105530002DE9F043AFB004466C2101A8FBF7FBF85E
:1055400018211CA8FBF7F7F8002694F8D211204682
:1055500009F028FA002701254FF002090DF104088F
:10556000002875D0012872D09C4808F057FE012011
:1055700008F042FE9AA008F034FE9BA008F031FE2D
:1055800096499BA008F02DFE9DA008F02AFE94A04D
:1055900008F027FE94A008F024FE9BA008F021FE4E
:1055A00097A008F01EFE08F025FE2DAA2146D4F88B
:1055B000440607F08FF8002820D0884808F02EFE17
:1055C000012008F019FE86A008F00BFE86A008F066
:1055D00008FE824986A008F004FE89A008F001FEBA
:1055E0007FA008F0FEFD80A008F0FBFD8EA008F073
:1055F000F8FD83A008F0F5FD08F0FCFD9DF8B4006F
:105600008DF870002196D4F894061F9094F89806AF
:10561000012877D08DF8795084F84396CDF8008032
:1056200094F8053204F206221CA9D4F8440607F0C7
:10563000A5FC002807D0062084F843069DF8B41086
:105640007AA008F0CEFD2FB0BDE8F08300E05AE06C
:1056500094F8D2116B4627AA204609F025FC1421A4
:1056600022A8FBF768F8D4F838062590204609F000
:105670002FFB8DF8990094F8D23194F9D41120467B
:10568000D4F8382608F07EFE8DF898009DF89C002E
:105690008DF888009DF800008DF88900204608F0FC
:1056A000F7FF8DF88A009DF889109DF8880002F0B8
:1056B000AEFB8DF88B009DF88810204609F0FCFAAF
:1056C000ADF88C008DF88E7094F805028DF890502E
:1056D0008DF88F008DF891708DF80450142222A956
:1056E00008F10400FBF700F8D4F8440622A9D0F82A
:1056F0001C2623A8D2F89820904706468DF8719072
:10570000524864E065E094F8D2116A46204608F0F9
:1057100057FF2C2122A8FBF70EF88DF8B25040F26B
:10572000FF10ADF8B00041F60F50ADF8AC0041F2FB
:105730002100ADF8AE00D4F838062A90204608F0D3
:10574000D5FF299094F8D23194F9D4112046D4F899
:10575000382608F017FE8DF8B3008DF89D5094F8A8
:1057600005028DF89E002820ADF8980018208DF8CD
:10577000A05046F2A8118DF89B00239104209DF8BB
:1057800000108DF89F004FF47A7211FB02F1229104
:105790002F4924918DF894008DF804702C2222A9B1
:1057A00008F10400FAF7A0FFD4F8440622A9D0F8C3
:1057B0001C2626A8D2F89C209047064625A0D4F89F
:1057C000381608F00EFD03208DF8710028481D9052
:1057D000EBE684F898768DF879701DE7BC1001002F
:1057E0001B5B303B33316D004552524F523A200023
:1057F0006372617368206C6F67203A25730A00003A
:105800001B5B306D000000002D3E205458204D4F92
:1058100044554C4154494F4E204E4F5420535550FF
:10582000504F525445440A002D3E20005261646995
:105830006F20706C616E6E657220686F6F6B2025D3
:105840006420697320627573790A00005153000067
:10585000A0860100202054784672657175656E63DC
:1058600079203D2025642C2046534B0A000000007F
:105870009551000070B50446D0F8A004002570B121
:1058800008F09EFCD4F8A414814201D8401A01E02B
:10589000C9430844D4F8A014814200D30D1A284605
:1058A00070BD70B50C00054601D100F02FFE2C70C4
:1058B00070BD00002DE9F05F04460AA81D4690E87F
:1058C000000F16460F461AA008F08BFC4FF4DC714F
:1058D0002046FAF730FF6760E660002225722270EA
:1058E00004F11401627081E8000F8D231046FF253A
:1058F00000EB800104EB8101401C81F8553181F8F7
:105900005431C1F85821C0B281F856510428EFD360
:10591000012084F83401217AE06807F0EFF8217A59
:105920002346E068BDE8F05F064A06F01DBF0000B0
:10593000636C6173735F635F6F626A20494E4954A1
:105940000A000000DD5F00002DE9F04104463E49F9
:105950003EA008F046FC052684F8306194F831003A
:105960000025410909D0012907D0022905D00429C1
:1059700003D0062901D0072906D14FF0FF3534A006
:1059800008F02FFC84F83061606890F85206012816
:1059900000D145B184F8306115B1002084F83000A1
:1059A0002846BDE8F08194F8320094F8331094F85A
:1059B000352000EB012094F83410090401EB02615A
:1059C0004718002000EB800104EB8101D1F8382159
:1059D000BA4203D191F83411012915D0401CC0B24C
:1059E0000528EFD394F83001052810D2204600F0A6
:1059F0002BFB94F8300100EB800004EB800000F5F5
:105A00009A70C4F89801CBE784F83001EAE784F88B
:105A1000306100266D1E16A008F0E3FB16A008F00A
:105A2000E0FB06EB860004EB80003A46D0F8381124
:105A300013A008F0D6FB1DA008F0D3FB761CF6B22D
:105A4000052EE8D3A9E700004DFB000025730A00EE
:105A500020424144204674797065203D2025752000
:105A6000666F72205258204672616D65200A0000F0
:105A70001B5B303B33326D00494E464F203A2000CD
:105A8000204241442044657641646472203D2025D3
:105A90007820666F72205258204672616D652061D1
:105AA0006E64202578200A200A0000001B5B306D00
:105AB000000000007CB50446514952A008F091FB5B
:105AC0006A462146E06806F005FE04F1100301AACB
:105AD0009DF80010E06806F057FD217C04290DD0E8
